:100000000C945D000C9485000C9485000C94850084
:100010000C9485000C9485000C9485000C9485004C
:100020000C9485000C9485000C9485000C9485003C
:100030000C9485000C9485000C9485000C9485002C
:100040000C9440040C9485000C940E040C94E8036A
:100050000C9485000C9485000C9485000C9485000C
:100060000C9485000C94850000000008000201003B
:100070000003040700000000000000000000000072
:10008000250028002B0000000000240027002A0083
:10009000040404040404040402020202020203032E
:1000A0000303030301020408102040800102040836
:1000B00010200102040810208A0411241FBECFEF73
:1000C000D8E0DEBFCDBF11E0A0E0B1E0E2E2FCE0AD
:1000D00002C005900D92AE32B107D9F721E0AEE231
:1000E000B1E001C01D92AE3EB207E1F710E0CDE5F0
:1000F000D0E004C02197FE010E940406CC35D10750
:10010000C9F70E94D5040C940F060C94000090E0EF
:10011000FC01EC55FF4F2491FC01E057FF4F849107
:10012000882399F090E0880F991FFC01EA57FF4F50
:10013000A591B491FC01E458FF4F859194918FB73C
:10014000F894EC91E22BEC938FBF0895CF92DF925D
:10015000EF92FF920F931F93CF93DF936C017A017D
:100160008B01C0E0D0E0CE15DF0589F0D8016D919C
:100170008D01D601ED91FC910190F081E02DC60139
:100180000995892B11F47E0102C02196ECCFC7019D
:10019000DF91CF911F910F91FF90EF90DF90CF9063
:1001A0000895FC01538D448D252F30E0842F90E07D
:1001B000821B930B541710F0CF9608950197089562
:1001C000FC01918D828D981761F0828DDF01A80F5F
:1001D000B11D5D968C91928D9F5F9F73928F90E081
:1001E00008958FEF9FEF0895FC01918D828D9817F0
:1001F00031F0828DE80FF11D858D90E008958FEF2D
:100200009FEF0895FC01918D228D892F90E0805CF5
:100210009F4F821B91098F739927089589E391E07D
:100220000E94020121E0892B09F420E0822F089529
:10023000FC01848DDF01A80FB11DA35ABF4F2C9183
:10024000848D90E001968F739927848FA689B78952
:100250002C93A089B1898C9180648C93938D848D2B
:10026000981306C00288F389E02D80818F7D8083FA
:100270000895EF92FF920F931F93CF93DF93EC01BA
:1002800081E0888F9B8D8C8D981305C0E889F98952
:10029000808185FD24C0F62E0B8D10E00F5F1F4F6F
:1002A0000F731127E02E8C8DE8120CC00FB607FCDF
:1002B000FACFE889F989808185FFF5CFCE010E94C8
:1002C0001801F1CF8B8DFE01E80FF11DE35AFF4FAE
:1002D000F0820B8FEA89FB898081806207C0EE89FA
:1002E000FF896083E889F98980818064808381E067
:1002F00090E0DF91CF911F910F91FF90EF900895C3
:10030000CF93DF93EC01888D8823C9F0EA89FB89BC
:10031000808185FD05C0A889B9898C9186FD0FC0B3
:100320000FB607FCF5CF808185FFF2CFA889B98988
:100330008C9185FFEDCFCE010E941801E7CFDF91B0
:10034000CF91089580E090E0892B29F00E940E0162
:1003500081110C940000089590E0FC01E859FF4FD2
:100360003491FC01EC55FF4F2491FC01E057FF4F05
:10037000E491EE2309F43BC0332339F1333091F09B
:1003800038F43130A9F0323001F584B58F7D12C0D8
:10039000373091F03830A1F03430B9F480918000DA
:1003A0008F7D03C0809180008F77809380000DC087
:1003B00084B58F7784BD09C08091B0008F7703C06A
:1003C0008091B0008F7D8093B000F0E0EE0FFF1FB2
:1003D000E458FF4FA591B4918FB7F894EC91611157
:1003E00003C020952E2301C02E2B2C938FBF089580
:1003F0003FB7F8948091330190913401A091350179
:10040000B091360126B5A89B05C02F3F19F0019683
:10041000A11DB11D3FBFBA2FA92F982F8827820F8A
:10042000911DA11DB11DBC01CD0142E0660F771FDA
:10043000881F991F4A95D1F70895CF93DF93EC0158
:1004400060E08E810E94AC0161E08E810E94AC016F
:1004500060E08E810E94AC018BE891E00197F1F79A
:10046000DF91CF910895CF92DF92EF92FF920F9399
:100470001F93CF93DF937C016C0187E0C80ED11CE2
:10048000C0E0D0E0062F10E0B8010C2E02C0759538
:1004900067950A94E2F76170F60181916F010E94FD
:1004A000AC012196C430D10579F7C701DF91CF9116
:1004B0001F910F91FF90EF90DF90CF900C941D0251
:1004C000CF92DF92EF92FF920F931F93CF93DF9320
:1004D000EC01F62E642F8C810E94AC018D818F3F40
:1004E00019F060E00E94AC018F850F2D10E084FFB1
:1004F00025C06E0187E0C80ED11CE12CF12CB8019B
:100500000E2C02C0759567950A94E2F76170F601AA
:1005100081916F010E94AC01FFEFEF1AFF0A88E0A2
:10052000E816F10461F7CE01DF91CF911F910F9191
:10053000FF90EF90DF90CF900C941D02B80184E003
:10054000759567958A95E1F7CE010E9433026F2D6C
:10055000CE01DF91CF911F910F91FF90EF90DF902F
:10056000CF900C94330241E00E94600281E090E061
:10057000089540E00C946002EF92FF920F931F9356
:10058000CF93DF93EC01623018F08F8588608F87FE
:100590006B8B1C8A80E48D8B80E18E8B80E58F8B4A
:1005A0008C810E9487008D818F3F11F00E9487000F
:1005B0008E810E9487007E0187E0E80EF11C00E03A
:1005C00010E08F8584FD03C084E090E002C088E0E5
:1005D00090E00817190744F4F70181917F010E9408
:1005E00087000F5F1F4FEDCF8BE39DE00197F1F781
:1005F00060E08C810E94AC0160E08E810E94AC01C1
:100600008D818F3F19F060E00E94AC016F8564FD21
:100610001DC063E0CE010E9433020BE416E4C80162
:100620000197F1F763E0CE010E943302C801019700
:10063000F1F763E0CE010E94330283E592E0019777
:10064000F1F762E0CE010E94330216C06062CE0173
:100650000E94B9028BE496E40197F1F76F8560621E
:10066000CE010E94B90283E592E00197F1F76F8510
:100670006062CE010E94B9026F856062CE010E9465
:10068000B90284E0888B6CE0CE010E94B90261E07F
:10069000CE010E94B9028BE39FE10197F1F782E05E
:1006A000898B66E0CE01DF91CF911F910F91FF9072
:1006B000EF900C94B902089580E090E008950E94B4
:1006C0000A066115710579F0FB0101900020E9F738
:1006D0003197AF01461B570BDC01ED91FC91028075
:1006E000F381E02D099480E090E008954F925F92AD
:1006F0006F927F92EF92FF920F931F93CF93DF93AE
:10070000CDB7DEB7A1970FB6F894DEBF0FBECDBF51
:100710007C01FA01CB0119A2223008F42AE08E01F3
:100720000F5D1F4F422E512C612C712CBF01A30174
:1007300092010E94E205F901CA01015011096A30D3
:1007400014F4605D01C0695CD8016C93232B242BE9
:10075000252B61F7B801C7010E946103A1960FB66E
:10076000F894DEBF0FBECDBFDF91CF911F910F91E7
:10077000FF90EF907F906F905F904F900895CF9291
:10078000DF92EF92FF920F931F93CF93DF93EC01D1
:100790006A017B01E881F9810190F081E02D6DE231
:1007A00009958C0144275527BA014C195D096E093A
:1007B0007F092AE0CE010E947603800F911FDF910E
:1007C000CF911F910F91FF90EF90DF90CF90089500
:1007D0001F920F920FB60F9211242F933F934F93B6
:1007E0005F936F937F938F939F93AF93BF93EF9399
:1007F000FF9389E391E00E941801FF91EF91BF916F
:10080000AF919F918F917F916F915F914F913F91A8
:100810002F910F900FBE0F901F9018951F920F925F
:100820000FB60F9211242F938F939F93EF93FF9303
:10083000E0914901F0914A018081E0914F01F091EE
:10084000500182FD12C09081809152018F5F8F73A1
:1008500020915301821751F0E0915201F0E0E75CE2
:10086000FE4F958F8093520101C08081FF91EF91DF
:100870009F918F912F910F900FBE0F901F90189501
:100880001F920F920FB60F9211242F933F938F93C5
:100890009F93AF93BF9380912F0190913001A091CE
:1008A0003101B091320130912E0123E0230F2D3719
:1008B00020F40196A11DB11D05C026E8230F029664
:1008C000A11DB11D20932E0180932F019093300123
:1008D000A0933101B09332018091330190913401A2
:1008E000A0913501B09136010196A11DB11D8093F3
:1008F000330190933401A0933501B0933601BF9139
:10090000AF919F918F913F912F910F900FBE0F90BC
:100910001F901895E9E3F1E01382128288EE93E0CC
:10092000A0E0B0E084839583A683B78384E091E060
:100930009183808385EC90E09587848784EC90E0B8
:100940009787868780EC90E0918B808B81EC90E09C
:10095000938B828B82EC90E0958B848B86EC90E07D
:10096000978B868B118E128E138E148EE6EDF1E02E
:100970001382128286E191E09183808387E08483F1
:100980008FEF858386E0868385E0878384E0808798
:1009900083E0818782E08287138614861586168617
:1009A000178661E0CF010C94BC02789484B5826014
:1009B00084BD84B5816084BD85B5826085BD85B503
:1009C000816085BD80916E00816080936E00109281
:1009D00081008091810082608093810080918100FC
:1009E000816080938100809180008160809380008D
:1009F0008091B10084608093B1008091B0008160EB
:100A00008093B00080917A00846080937A00809116
:100A10007A00826080937A0080917A00816080936E
:100A20007A0080917A00806880937A001092C100E9
:100A300062E086ED91E00E94BC02E0914901F091F4
:100A40004A0182E08083E0914501F09146011082E5
:100A5000E0914701F09148018FEC808310925101A1
:100A6000E0914D01F0914E0186E08083E0914B01D1
:100A7000F0914C01808180618083E0914B01F09185
:100A80004C01808188608083E0914B01F0914C01A2
:100A9000808180688083E0914B01F0914C018081DE
:100AA0008F7D808310E4E1E08091E9018111E0E035
:100AB000E195F0E0EA52FE4F6489606886ED91E0CE
:100AC0000E94B9026EE171E086ED91E00E9461033F
:100AD00010937C0080917A00806480937A008091EA
:100AE0007A0086FDFCCFC091780080917900D0E03B
:100AF000D82BD0933801C0933701E091E901E2305F
:100B000010F4E15001C0E1E0F0E0EA52FE4F6489E8
:100B1000606886ED91E00E94B902AE010D2E000CD6
:100B2000660B770BD7FF05C086ED91E00E94BF03EF
:100B300005C02AE086ED91E00E94760340913701DE
:100B400050913801052E000C660B770B77FF05C01E
:100B500089E391E00E94BF0305C02AE089E391E0A8
:100B60000E9476036BE271E089E391E00E946103E9
:100B70000E94F8014B015C0184EFC82EDD24D39460
:100B8000E12CF12C0E94F801DC01CB0188199909B4
:100B9000AA09BB09883E9340A105B10558F021E0A0
:100BA000C21AD108E108F10888EE880E83E0981E89
:100BB000A11CB11CC114D104E104F10419F70E9475
:100BC000A20171CFA1E21A2EAA1BBB1BFD010DC011
:100BD000AA1FBB1FEE1FFF1FA217B307E407F507ED
:100BE00020F0A21BB30BE40BF50B661F771F881FC9
:100BF000991F1A9469F760957095809590959B015F
:100C0000AC01BD01CF010895EE0FFF1F0590F491D7
:100C1000E02D099481E090E0F8940C940F06F8948C
:020C2000FFCF04
:100C2200000000003901A600D10080010201E000AD
:100C3200F40000000000B302A6005C035B03414421
:0E0C4200432050524F4752414D49000D0A00C9
:107E0000112484B714BE81FFF0D085E080938100F7
:107E100082E08093C00088E18093C10086E0809377
:107E2000C20080E18093C4008EE0C9D0259A86E02C
:107E300020E33CEF91E0309385002093840096BBD3
:107E4000B09BFECF1D9AA8958150A9F7CC24DD24C4
:107E500088248394B5E0AB2EA1E19A2EF3E0BF2EE7
:107E6000A2D0813461F49FD0082FAFD0023811F036
:107E7000013811F484E001C083E08DD089C08234E0
:107E800011F484E103C0853419F485E0A6D080C0E4
:107E9000853579F488D0E82EFF2485D0082F10E0AE
:107EA000102F00270E291F29000F111F8ED06801E7
:107EB0006FC0863521F484E090D080E0DECF843638
:107EC00009F040C070D06FD0082F6DD080E0C81688
:107ED00080E7D80618F4F601B7BEE895C0E0D1E017
:107EE00062D089930C17E1F7F0E0CF16F0E7DF06D8
:107EF00018F0F601B7BEE89568D007B600FCFDCFD4
:107F0000A601A0E0B1E02C9130E011968C91119780
:107F100090E0982F8827822B932B1296FA010C0160
:107F200087BEE89511244E5F5F4FF1E0A038BF0790
:107F300051F7F601A7BEE89507B600FCFDCF97BE46
:107F4000E89526C08437B1F42ED02DD0F82E2BD052
:107F50003CD0F601EF2C8F010F5F1F4F84911BD097
:107F6000EA94F801C1F70894C11CD11CFA94CF0C13
:107F7000D11C0EC0853739F428D08EE10CD085E9AC
:107F80000AD08FE07ACF813511F488E018D01DD067
:107F900080E101D065CF982F8091C00085FFFCCF94
:107FA0009093C60008958091C00087FFFCCF809118
:107FB000C00084FD01C0A8958091C6000895E0E648
:107FC000F0E098E1908380830895EDDF803219F02E
:107FD00088E0F5DFFFCF84E1DECF1F93182FE3DFCA
:107FE0001150E9F7F2DF1F91089580E0E8DFEE27F6
:047FF000FF270994CA
:027FFE00040479
:0400000300007E007B
:00000001FF
