:100000000C945D000C9485000C9485000C94850084
:100010000C9485000C9485000C9485000C9485004C
:100020000C9485000C9485000C9485000C9485003C
:100030000C9485000C9485000C9485000C9485002C
:100040000C9434030C9485000C9485000C9485006A
:100050000C9485000C9485000C9485000C9485000C
:100060000C9485000C9485000000000024002700FB
:100070002A0000000000250028002B0004040404CE
:100080000404040402020202020203030303030342
:10009000010204081020408001020408102001021F
:1000A00004081020000000080002010000030407FB
:1000B0000000000000000000CE0411241FBECFEF9E
:1000C000D8E0DEBFCDBF11E0A0E0B1E0E2EAFAE0A7
:1000D00002C005900D92A631B107D9F721E0A6E143
:1000E000B1E001C01D92A933B207E1F710E0CDE500
:1000F000D0E004C02197FE010E944405CC35D10711
:10010000C9F70E947E030C944F050C940000CF9217
:10011000DF92EF92FF920F931F93CF93DF936C01C7
:100120007A018B01C0E0D0E0CE15DF0589F0D8015F
:100130006D918D01D601ED91FC910190F081E02D42
:10014000C6010995892B11F47E0102C02196ECCFDE
:10015000C701DF91CF911F910F91FF90EF90DF903A
:10016000CF90089590E0FC01EC55FF4F3491FC01D5
:10017000E057FF4F2491FC01E458FF4FE491EE2338
:1001800009F43BC0332339F1333091F038F4313086
:10019000A9F0323001F584B58F7D12C0373091F06F
:1001A0003830A1F03430B9F4809180008F7D03C0E5
:1001B000809180008F77809380000DC084B58F7709
:1001C00084BD09C08091B0008F7703C08091B000DA
:1001D0008F7D8093B000F0E0EE0FFF1FEE58FF4FD1
:1001E000A591B4918FB7F894EC91611103C020955B
:1001F0002E2301C02E2B2C938FBF0895CF93DF9316
:1002000090E0FC01E057FF4F2491FC01E458FF4FC0
:100210008491882361F190E0880F991FFC01E859CF
:10022000FF4FC591D491FC01EE58FF4FA591B491B9
:10023000611109C09FB7F894888120958223888333
:10024000EC912E230BC0623061F49FB7F894388193
:10025000822F809583238883EC912E2B2C939FBF34
:1002600006C08FB7F894E8812E2B28838FBFDF91CB
:10027000CF9108953FB7F89480911B0190911C0194
:10028000A0911D01B0911E0126B5A89B05C02F3F6E
:1002900019F00196A11DB11D3FBFBA2FA92F982FAC
:1002A0008827820F911DA11DB11DBC01CD0142E027
:1002B000660F771F881F991F4A95D1F70895CF932E
:1002C000DF93EC0160E08E810E94B20061E08E81DC
:1002D0000E94B20060E08E810E94B2008BE891E043
:1002E0000197F1F7DF91CF910895CF92DF92EF92CE
:1002F000FF920F931F93CF93DF937C016C0187E0F4
:10030000C80ED11CC0E0D0E0062F10E0B8010C2EC2
:1003100002C0759567950A94E2F76170F6018191C4
:100320006F010E94B2002196C430D10579F7C70150
:10033000DF91CF911F910F91FF90EF90DF90CF90C1
:100340000C945F01CF92DF92EF92FF920F931F9375
:10035000CF93DF93EC01F62E642F8C810E94B200C4
:100360008D818F3F19F060E00E94B2008F850F2DC4
:1003700010E084FF25C06E0187E0C80ED11CE12C7F
:10038000F12CB8010E2C02C0759567950A94E2F71E
:100390006170F60181916F010E94B200FFEFEF1AC8
:1003A000FF0A88E0E816F10461F7CE01DF91CF91F2
:1003B0001F910F91FF90EF90DF90CF900C945F0111
:1003C000B80184E0759567958A95E1F7CE010E94A2
:1003D00075016F2DCE01DF91CF911F910F91FF908D
:1003E000EF90DF90CF900C94750141E00E94A20144
:1003F00081E090E0089540E00C94A201EF92FF921A
:100400000F931F93CF93DF93EC01623018F08F8529
:1004100088608F876B8B1C8A80E48D8B80E18E8B4C
:1004200080E58F8B61E08C810E94FE008D818F3F83
:1004300019F061E00E94FE0061E08E810E94FE00E2
:100440007E0187E0E80EF11C00E010E08F8584FD5E
:1004500003C084E090E002C088E090E0081719072C
:100460004CF461E0F70181917F010E94FE000F5F73
:100470001F4FECCF8BE39DE00197F1F760E08C819B
:100480000E94B20060E08E810E94B2008D818F3F99
:1004900019F060E00E94B2006F8564FD1DC063E04A
:1004A000CE010E9475010BE416E4C8010197F1F733
:1004B00063E0CE010E947501C8010197F1F763E086
:1004C000CE010E94750183E592E00197F1F762E0A9
:1004D000CE010E94750116C06062CE010E94FB0130
:1004E0008BE496E40197F1F76F856062CE010E947C
:1004F000FB0183E592E00197F1F76F856062CE0121
:100500000E94FB016F856062CE010E94FB0184E0C6
:10051000888B6CE0CE010E94FB0161E0CE010E945D
:10052000FB018BE39FE10197F1F782E0898B66E0A5
:10053000CE01DF91CF911F910F91FF90EF900C941E
:10054000FB01089580E090E00895009769F0FC01B8
:1005500001900020E9F73197AF01481B590BBC010E
:1005600081E291E00C94870080E090E008958F9202
:100570009F92AF92BF92CF92DF92EF92FF920F9332
:100580001F93CF93DF93CDB7DEB7A1970FB6F89443
:10059000DEBF0FBECDBF6C01990FEE08FF08F7FE5E
:1005A00031C0E0912101F09122010190F081E02D14
:1005B0006DE281E291E009958C0122273327A901A0
:1005C0002C193D094E095F0919A2CE0181967C01C3
:1005D0009AE0892E912CA12CB12CCA01B901A50158
:1005E00094010E940C05605DF70162937F01211563
:1005F00031054105510589F7CF010E94A502800F01
:10060000911F1DC0A701960119A28E010F5D1F4FFA
:100610008AE0C82ED12CE12CF12CCA01B901A70126
:1006200096010E940C05605DF80162938F0121150F
:1006300031054105510589F7CF010E94A502A19618
:100640000FB6F894DEBF0FBECDBFDF91CF911F91E3
:100650000F91FF90EF90DF90CF90BF90AF909F9061
:100660008F9008950E944A051F920F920FB60F9225
:1006700011242F933F938F939F93AF93BF938091B8
:10068000170190911801A0911901B0911A013091B0
:10069000160123E0230F2D3720F40196A11DB11D73
:1006A00005C026E8230F0296A11DB11D2093160157
:1006B0008093170190931801A0931901B0931A0128
:1006C00080911B0190911C01A0911D01B0911E0110
:1006D0000196A11DB11D80931B0190931C01A09355
:1006E0001D01B0931E01BF91AF919F918F913F91DA
:1006F0002F910F900FBE0F901F901895CF93DF93FF
:1007000000D000D0CDB7DEB7789484B5826084BDC8
:1007100084B5816084BD85B5826085BD85B5816005
:1007200085BD80916E00816080936E001092810083
:10073000809181008260809381008091810081603E
:1007400080938100809180008160809380008091FF
:10075000B10084608093B1008091B000816080938B
:10076000B00080917A00846080937A0080917A0052
:10077000826080937A0080917A00816080937A0011
:1007800080917A00806880937A001092C10061E0C5
:1007900089E00E94FE0060E08EE00E94FE0062E0C0
:1007A00081E291E00E94FE01CC24CA9493E0D92E0C
:1007B000E12CF12C0BE31FE120E4322E30927C007F
:1007C00080917A00806480937A0080917A0086FD1F
:1007D000FCCF809178002091790090E0922B90934B
:1007E000200180931F01E1E0809134018111E0E05C
:1007F000E195F0E0EF5DFE4F6489606881E291E091
:100800000E94FB018CE091E00E94A50280911F01F3
:10081000909120010E94B702A0911F01B091200188
:100820002FEF30E00E943D05A70196010E94ED04E4
:1008300049013093200120931F0161E089E0298361
:100840003A834B835C830E94FE0029813A814B816D
:100850005C81211531054105510511F460E006C0A8
:100860002F3F31054105510529F461E089E00E94DF
:10087000B20044C0EDEAF0E084918330F9F048F42E
:100880008130B9F08230A1F584B5806284BD28BD85
:1008900035C08730E9F0883019F1843049F580910E
:1008A000800080628093800030938B0020938A00C8
:1008B00025C084B5806884BD27BD20C0809180009C
:1008C000806880938000309389002093880016C050
:1008D0008091B00080688093B0002093B3000EC078
:1008E0008091B00080628093B0002093B40006C075
:1008F000F0E88F1691040CF0B8CFB0CFE09134013E
:10090000E23010F4E15001C0E1E0F0E0EF5DFE4FB5
:100910006489606881E291E00E94FB0181E191E0DD
:100920000E94A50280911F01909120010E94B702B0
:100930000E943A014B015C0184E6482E512C612C47
:10094000712C0E943A01DC01CB0188199909AA098E
:10095000BB09883E9340A105B10558F021E0421A39
:1009600051086108710888EE880E83E0981EA11C6A
:10097000B11C411451046104710419F761E081E272
:1009800091E00E94FB01C8010197F1F780E090E03F
:10099000892B09F413CF0E94000010CFE1E2F1E0AF
:1009A0001382128284E091E09183808387E08483C4
:1009B0008FEF858386E0868385E0878384E0808768
:1009C00083E0818782E082871386148615861686E7
:1009D000178661E0CF010C94FE01052E97FB1EF4F3
:1009E00000940E94040557FD07D00E940C0507FCE7
:1009F00003D04EF40C940405509540953095219504
:100A00003F4F4F4F5F4F089590958095709561953A
:100A10007F4F8F4F9F4F0895A1E21A2EAA1BBB1B39
:100A2000FD010DC0AA1FBB1FEE1FFF1FA217B307BA
:100A3000E407F50720F0A21BB30BE40BF50B661FD0
:100A4000771F881F991F1A9469F760957095809594
:100A500090959B01AC01BD01CF010895A29FB0010B
:100A6000B39FC001A39F700D811D1124911DB29FE2
:100A7000700D811D1124911D08950E942E05B7FF50
:100A80000895821B930B0895EE0FFF1F0590F491BC
:100A9000E02D099481E090E0F8940C944F05F894CF
:020AA000FFCF86
:100AA20000000000F5018700A202A1024144433A7E
:060AB2000050574D3A0010
:107E0000112484B714BE81FFF0D085E080938100F7
:107E100082E08093C00088E18093C10086E0809377
:107E2000C20080E18093C4008EE0C9D0259A86E02C
:107E300020E33CEF91E0309385002093840096BBD3
:107E4000B09BFECF1D9AA8958150A9F7CC24DD24C4
:107E500088248394B5E0AB2EA1E19A2EF3E0BF2EE7
:107E6000A2D0813461F49FD0082FAFD0023811F036
:107E7000013811F484E001C083E08DD089C08234E0
:107E800011F484E103C0853419F485E0A6D080C0E4
:107E9000853579F488D0E82EFF2485D0082F10E0AE
:107EA000102F00270E291F29000F111F8ED06801E7
:107EB0006FC0863521F484E090D080E0DECF843638
:107EC00009F040C070D06FD0082F6DD080E0C81688
:107ED00080E7D80618F4F601B7BEE895C0E0D1E017
:107EE00062D089930C17E1F7F0E0CF16F0E7DF06D8
:107EF00018F0F601B7BEE89568D007B600FCFDCFD4
:107F0000A601A0E0B1E02C9130E011968C91119780
:107F100090E0982F8827822B932B1296FA010C0160
:107F200087BEE89511244E5F5F4FF1E0A038BF0790
:107F300051F7F601A7BEE89507B600FCFDCF97BE46
:107F4000E89526C08437B1F42ED02DD0F82E2BD052
:107F50003CD0F601EF2C8F010F5F1F4F84911BD097
:107F6000EA94F801C1F70894C11CD11CFA94CF0C13
:107F7000D11C0EC0853739F428D08EE10CD085E9AC
:107F80000AD08FE07ACF813511F488E018D01DD067
:107F900080E101D065CF982F8091C00085FFFCCF94
:107FA0009093C60008958091C00087FFFCCF809118
:107FB000C00084FD01C0A8958091C6000895E0E648
:107FC000F0E098E1908380830895EDDF803219F02E
:107FD00088E0F5DFFFCF84E1DECF1F93182FE3DFCA
:107FE0001150E9F7F2DF1F91089580E0E8DFEE27F6
:047FF000FF270994CA
:027FFE00040479
:0400000300007E007B
:00000001FF
