:100000000C945D000C9485000C9485000C94850084
:100010000C9485000C9485000C9485000C9485004C
:100020000C9485000C9485000C9485000C9442017E
:100030000C9485000C9485000C9485000C9485002C
:100040000C94F8000C9485000C9485000C948500A9
:100050000C9485000C9485000C9485000C9485000C
:100060000C9485000C94850000000008000201003B
:100070000003040700000000000000000000000072
:10008000250028002B0000000000240027002A0083
:10009000040404040404040402020202020203032E
:1000A0000303030301020408102040800102040836
:1000B0001020010204081020860311241FBECFEF78
:1000C000D8E0DEBFCDBF21E0A4E0B1E001C01D92C9
:1000D000A833B207E1F711E0A0E0B1E0E0E4F8E016
:1000E00002C005900D92A430B107D9F710E0CDE51C
:1000F000D0E004C02197FE010E94B503CC35D107A2
:10010000C9F70E9403020C941E040C94000090E0B6
:10011000FC01E859FF4F3491FC01EC55FF4F24914D
:10012000FC01E057FF4FE491EE2309F43BC0332379
:1001300039F1333091F038F43130A9F0323001F533
:1001400084B58F7D12C0373091F03830A1F0343053
:10015000B9F4809180008F7D03C0809180008F77FB
:10016000809380000DC084B58F7784BD09C08091D5
:10017000B0008F7703C08091B0008F7D8093B00076
:10018000F0E0EE0FFF1FE458FF4FA591B4918FB739
:10019000F894EC91611103C020952E2301C02E2B01
:1001A0002C938FBF08953FB7F89480910B019091E5
:1001B0000C01A0910D01B0910E0126B5A89B05C0C0
:1001C0002F3F19F00196A11DB11D3FBFBA2FA92FD6
:1001D000982F8827820F911DA11DB11DBC01CD0153
:1001E00042E0660F771F881F991F4A95D1F708953F
:1001F0001F920F920FB60F9211242F933F938F935C
:100200009F93AF93BF938091070190910801A091B4
:100210000901B0910A013091060123E0230F2D3727
:1002200020F40196A11DB11D05C026E8230F0296FA
:10023000A11DB11D20930601809307019093080131
:10024000A0930901B0930A0180910B0190910C01D8
:10025000A0910D01B0910E010196A11DB11D8093D9
:100260000B0190930C01A0930D01B0930E01BF916F
:10027000AF919F918F913F912F910F900FBE0F9053
:100280001F9018951F920F920FB60F9211242F9363
:100290003F934F935F936F937F938F939F93AF930E
:1002A000BF93EF93FF938091050187FF05C01092E4
:1002B0008500109284001BC020910501022E000CC5
:1002C000330B8091040190E02817390784F4809162
:1002D0000501082E000C990BFC01EE0FFF1F8E0F7D
:1002E0009F1FFC01E15FFE4F808186FD15C080915C
:1002F00005018F5F8093050120910501022E000CFE
:10030000330B8091040190E028173907C4F48091E1
:1003100005018C3064F113C080910501082E000C9A
:10032000990BFC01EE0FFF1F8E0F9F1FFC01E15F79
:10033000FE4F808160E08F730E948700D8CF80914C
:10034000840090918500049680349C4918F480E4E0
:100350009CE905C08091840090918500049690935B
:100360008900809388008FEF809305013BC0209126
:1003700084003091850080910501082E000C990BB6
:10038000FC01EE0FFF1F8E0F9F1FFC01E15FFE4F70
:1003900081819281820F931F9093890080938800BE
:1003A00080910501082E000C990BFC01EE0FFF1F38
:1003B0008E0F9F1FFC01E15FFE4F808186FF12C000
:1003C00080910501082E000C990BFC01EE0FFF1F18
:1003D0008E0F9F1FFC01E15FFE4F808161E08F73F4
:1003E0000E948700FF91EF91BF91AF919F918F91F4
:1003F0007F916F915F914F913F912F910F900FBE21
:100400000F901F901895789484B5826084BD84B550
:10041000816084BD85B5826085BD85B5816085BDFF
:1004200080916E00816080936E00109281008091B7
:10043000810082608093810080918100816080933F
:100440008100809180008160809380008091B10064
:1004500084608093B1008091B00081608093B0008F
:1004600080917A00846080937A0080917A00826023
:1004700080937A0080917A00816080937A008091E5
:100480007A00806880937A001092C10080913301D5
:100490008C3008F068C0EDEAF0E02491E9E9F0E082
:1004A0008491882399F090E0880F991FFC01EA5706
:1004B000FF4FA591B491FC01E458FF4F85919491B1
:1004C0008FB7F894EC91E22BEC938FBF80913301BE
:1004D000E82FF0E09F01220F331FE20FF31FE15FCF
:1004E000FE4F9081907C996090831092340110921D
:1004F00035016CE00E94A2032CE0829FB001112420
:1005000040E050E09A01260F371FF901EE0FFF1F60
:100510002E0F3F1FF901E15FFE4F908196FD16C03F
:100520004F5F5F4F4C30510569F781110FC010923A
:10053000800082E0809381001092850010928400F8
:10054000B19A80916F00826080936F00E0913301D7
:10055000F0E0CF01880F991FE80FF91FE15FFE4F10
:1005600080818064808308E810E0C8E5D2E0B4EBC5
:100570004B2E512C612C712C80E0282E80E0382EDF
:1005800040E440937C0080917A00806480937A00FC
:1005900080917A0086FDFCCFA0917800809179004F
:1005A000B0E0B82B23EB30E00E94AE032FEF33E036
:1005B00040E050E00E94BB03C90130933701209313
:1005C0003601203262E0360741055105E4F557FD5A
:1005D00006C0253B31052CF084EB90E002C080E0A2
:1005E00090E0209134016801C21AD10827FDD3940C
:1005F000D601AA0FBB1FAA0FBB1F6D01BB0FEE08D0
:10060000FF0820913501AE01421B510927FD53958A
:100610009A01220F331F220F331FA901330F660BDC
:10062000770B9A01AB012C193D094E095F09DC01DA
:100630000E94E503A30192010E94BB03C20ED31ED8
:10064000E41EF51EC601609133016C3090F52091D7
:100650003401A801421B510927FD53959A01220F2D
:10066000331F220F331F8217930784F02091350127
:10067000AE01421B510927FD5395440F551F440FEE
:10068000551F9C01481759070CF49A012250310953
:10069000220F331F7FB7F894862F90E0AC01440FF0
:1006A000551F840F951FFC01E15FFE4F32832183AC
:1006B0007FBF0E94D3004B015C018FE0C82ED12C7C
:1006C000E12CF12C0E94D300DC01CB01881999099F
:1006D000AA09BB09883E9340A105B10558F051E035
:1006E000C51AD108E108F10868EE860E63E0961E8F
:1006F000A11CB11CC114D104E104F10419F72114A7
:10070000310409F43DCF0E9400003ACF80910401EA
:100710008C30A0F491E0980F909304018093330102
:1007200090E0FC01EE0FFF1F8E0F9F1FFC01E15FA9
:10073000FE4F88EB9BE09283818308958FEF809337
:1007400033010895991B79E004C0991F961708F0AA
:10075000961B881F7A95C9F7809508950E940F040B
:10076000B7FF0895821B930B0895EE0FFF1F0590AE
:10077000F491E02D0994052E97FB1EF400940E943D
:10078000D20357FD07D00E94ED0307FC03D04EF4BF
:100790000C94D20350954095309521953F4F4F4F83
:1007A0005F4F089590958095709561957F4F8F4F1D
:1007B0009F4F08950E940F04A59F900DB49F900D28
:1007C000A49F800D911D11240895B7FF0C94DA03A6
:1007D0000E94DA03821B930B0895A1E21A2EAA1B32
:1007E000BB1BFD010DC0AA1FBB1FEE1FFF1FA217E1
:1007F000B307E407F50720F0A21BB30BE40BF50BDE
:10080000661F771F881F991F1A9469F76095709566
:10081000809590959B01AC01BD01CF010895A29FE9
:10082000B001B39FC001A39F700D811D1124911DC4
:10083000B29F700D811D1124911D0895F894FFCF72
:0408400001000000B3
:107E0000112484B714BE81FFF0D085E080938100F7
:107E100082E08093C00088E18093C10086E0809377
:107E2000C20080E18093C4008EE0C9D0259A86E02C
:107E300020E33CEF91E0309385002093840096BBD3
:107E4000B09BFECF1D9AA8958150A9F7CC24DD24C4
:107E500088248394B5E0AB2EA1E19A2EF3E0BF2EE7
:107E6000A2D0813461F49FD0082FAFD0023811F036
:107E7000013811F484E001C083E08DD089C08234E0
:107E800011F484E103C0853419F485E0A6D080C0E4
:107E9000853579F488D0E82EFF2485D0082F10E0AE
:107EA000102F00270E291F29000F111F8ED06801E7
:107EB0006FC0863521F484E090D080E0DECF843638
:107EC00009F040C070D06FD0082F6DD080E0C81688
:107ED00080E7D80618F4F601B7BEE895C0E0D1E017
:107EE00062D089930C17E1F7F0E0CF16F0E7DF06D8
:107EF00018F0F601B7BEE89568D007B600FCFDCFD4
:107F0000A601A0E0B1E02C9130E011968C91119780
:107F100090E0982F8827822B932B1296FA010C0160
:107F200087BEE89511244E5F5F4FF1E0A038BF0790
:107F300051F7F601A7BEE89507B600FCFDCF97BE46
:107F4000E89526C08437B1F42ED02DD0F82E2BD052
:107F50003CD0F601EF2C8F010F5F1F4F84911BD097
:107F6000EA94F801C1F70894C11CD11CFA94CF0C13
:107F7000D11C0EC0853739F428D08EE10CD085E9AC
:107F80000AD08FE07ACF813511F488E018D01DD067
:107F900080E101D065CF982F8091C00085FFFCCF94
:107FA0009093C60008958091C00087FFFCCF809118
:107FB000C00084FD01C0A8958091C6000895E0E648
:107FC000F0E098E1908380830895EDDF803219F02E
:107FD00088E0F5DFFFCF84E1DECF1F93182FE3DFCA
:107FE0001150E9F7F2DF1F91089580E0E8DFEE27F6
:047FF000FF270994CA
:027FFE00040479
:0400000300007E007B
:00000001FF
