:100000000C9435000C945D000C945D000C945D0024
:100010000C945D000C945D000C945D000C945D00EC
:100020000C945D000C945D000C945D000C945D00DC
:100030000C945D000C945D000C945D000C945D00CC
:100040000C942F020C945D000C94FD010C94D701CC
:100050000C945D000C945D000C945D000C945D00AC
:100060000C945D000C945D00640311241FBECFEF5F
:10007000D8E0DEBFCDBF11E0A0E0B1E0E8E9F7E0F5
:1000800002C005900D92AC36B107D9F722E0ACE67C
:10009000B1E001C01D92A631B207E1F710E0C5E35F
:1000A000D0E004C02197FE010E94BF03C433D107F2
:1000B000C9F70E9479020C94CA030C940000CF92F5
:1000C000DF92EF92FF920F931F93CF93DF936C0118
:1000D0007A018B01C0E0D0E0CE15DF0589F0D801B0
:1000E0006D918D01D601ED91FC910190F081E02D93
:1000F000C6010995892B11F47E0102C02196ECCF2F
:10010000C701DF91CF911F910F91FF90EF90DF908A
:10011000CF900895FC01918D828D981761F0828DAA
:10012000DF01A80FB11D5D968C91928D9F5F9F732B
:10013000928F90E008958FEF9FEF0895FC01918DCD
:10014000828D981731F0828DE80FF11D858D90E03A
:1001500008958FEF9FEF0895FC01918D228D892FD7
:1001600090E0805C9F4F821B91098F7399270895BF
:1001700089E791E00E94AC0021E0892B09F420E09E
:10018000822F0895FC01848DDF01A80FB11DA35AB1
:10019000BF4F2C91848D90E001968F739927848FA7
:1001A000A689B7892C93A089B1898C9180648C939E
:1001B000938D848D981306C00288F389E02D808189
:1001C0008F7D80830895EF92FF920F931F93CF93BB
:1001D000DF93EC0181E0888F9B8D8C8D981305C097
:1001E000E889F989808185FD24C0F62E0B8D10E009
:1001F0000F5F1F4F0F731127E02E8C8DE8120CC07C
:100200000FB607FCFACFE889F989808185FFF5CF21
:10021000CE010E94C200F1CF8B8DFE01E80FF11DCF
:10022000E35AFF4FF0820B8FEA89FB89808180625D
:1002300007C0EE89FF896083E889F989808180643D
:10024000808381E090E0DF91CF911F910F91FF902B
:10025000EF900895CF93DF93EC01888D8823C9F048
:10026000EA89FB89808185FD05C0A889B9898C91BF
:1002700086FD0FC00FB607FCF5CF808185FFF2CF5A
:10028000A889B9898C9185FFEDCFCE010E94C2006B
:10029000E7CFDF91CF91089580E090E0892B29F09E
:1002A0000E94B80081110C94000008953FB7F894A3
:1002B0008091710190917201A0917301B0917401CC
:1002C00026B5A89B05C02F3F19F00196A11DB11DB1
:1002D0003FBFBA2FA92F982F8827820F911DA11DEC
:1002E000B11DBC01CD0142E0660F771F881F991F29
:1002F0004A95D1F708958F929F92AF92BF92CF9275
:10030000DF92EF92FF926B017C010E9456014B013C
:100310005C01C114D104E104F104F1F00E94560122
:10032000DC01CB0188199909AA09BB09883E9340D1
:10033000A105B10570F321E0C21AD108E108F10866
:1003400088EE880E83E0981EA11CB11CC114D10454
:10035000E104F10419F7DDCFFF90EF90DF90CF902B
:10036000BF90AF909F908F900895009769F0FC0127
:1003700001900020E9F73197AF01481B590BBC01F0
:1003800089E791E00C945F0080E090E00895CF93BE
:10039000DF930E94B501EC0180E191E00E94B5017C
:1003A0008C0F9D1FDF91CF9108950E94C5031F926E
:1003B0000F920FB60F9211242F933F934F935F9399
:1003C0006F937F938F939F93AF93BF93EF93FF931D
:1003D00089E791E00E94C200FF91EF91BF91AF9138
:1003E0009F918F917F916F915F914F913F912F914D
:1003F0000F900FBE0F901F9018951F920F920FB67F
:100400000F9211242F938F939F93EF93FF93E0917B
:100410008901F0918A018081E0918F01F091900132
:1004200082FD12C09081809192018F5F8F73209125
:100430009301821751F0E0919201F0E0E758FE4FEE
:10044000958F8093920101C08081FF91EF919F91E0
:100450008F912F910F900FBE0F901F9018951F92A4
:100460000F920FB60F9211242F933F938F939F9368
:10047000AF93BF9380916D0190916E01A0916F0138
:10048000B091700130916C0123E0230F2D3720F4DF
:100490000196A11DB11D05C026E8230F0296A11DDE
:1004A000B11D20936C0180936D0190936E01A09318
:1004B0006F01B09370018091710190917201A091D0
:1004C0007301B09174010196A11DB11D809371015A
:1004D00090937201A0937301B0937401BF91AF9197
:1004E0009F918F913F912F910F900FBE0F901F9072
:1004F0001895CF93DF93CDB7DEB7A1970FB6F894D9
:10050000DEBF0FBECDBF789484B5826084BD84B554
:10051000816084BD85B5826085BD85B5816085BDFE
:1005200080916E00816080936E00109281008091B6
:10053000810082608093810080918100816080933E
:100540008100809180008160809380008091B10063
:1005500084608093B1008091B00081608093B0008E
:1005600080917A00846080937A0080917A00826022
:1005700080937A0080917A00816080937A008091E4
:100580007A00806880937A001092C100E09189011E
:10059000F0918A0182E08083E0918501F0918601EB
:1005A0001082E0918701F09188018FEC8083109296
:1005B0009101E0918D01F0918E0186E08083E091C0
:1005C0008B01F0918C01808180618083E0918B01AF
:1005D000F0918C01808188608083E0918B01F091A3
:1005E0008C01808180688083E0918B01F0918C0187
:1005F00080818F7D808383E0F82E95E0E92E2AE0CC
:10060000822E912CA12CB12C80917801843611F48A
:100610001092780130917801832F81708093770157
:10062000832F6F2D0E94910390937601832F6E2D5F
:100630000E94910390937501232F30E040E050E039
:1006400019A28E010F5D1F4FCA01B901A5019401C6
:100650000E949D0380E3860FF80182938F0121158C
:1006600031054105510581F7CF010E94B50164E6CE
:1006700070E080E090E00E947B0180917701811121
:1006800003C083E191E010C080917601811103C025
:1006900086E291E009C080917501811103C088E371
:1006A00091E002C08AE491E00E94C7018091780144
:1006B0008F5F8093780168EE73E080E090E00E94A5
:1006C0007B010E944C01A0CFE9E7F1E01382128286
:1006D00088EE93E0A0E0B0E084839583A683B7839F
:1006E00084E091E09183808385EC90E09587848716
:1006F00084EC90E09787868780EC90E0918B808BEC
:1007000081EC90E0938B828B82EC90E0958B848BD4
:1007100086EC90E0978B868B118E128E138E148E42
:100720000895991B79E004C0991F961708F0961B4D
:10073000881F7A95C9F780950895A1E21A2EAA1B01
:10074000BB1BFD010DC0AA1FBB1FEE1FFF1FA21781
:10075000B307E407F50720F0A21BB30BE40BF50B7E
:10076000661F771F881F991F1A9469F76095709507
:10077000809590959B01AC01BD01CF010895EE0FCE
:10078000FF1F0590F491E02D099481E090E0F8942A
:080790000C94CA03F894FFCF9A
:1007980000000000E3005F00AC008A009E002A0110
:1007A8000D0A002D2D3227796520626F6C756E65F4
:1007B80062696C6972002D2D33276520626F6C7534
:1007C8006E6562696C6972002D2D35276520626F30
:1007D8006C756E6562696C6972002D2D42656C6975
:1007E8007274696C656E20736179696C61726120DD
:0C07F800626F6C756E656D657A21000003
:00000001FF
