:100000000C9435000C945D000C945D000C945D0024
:100010000C945D000C945D000C945D000C945D00EC
:100020000C945D000C945D000C945D000C945D00DC
:100030000C945D000C945D000C945D000C945D00CC
:100040000C94F5010C945D000C94C3010C949D017B
:100050000C945D000C945D000C945D000C945D00AC
:100060000C945D000C945D00240311241FBECFEF9F
:10007000D8E0DEBFCDBF11E0A0E0B1E0E0E0F7E006
:1000800002C005900D92AA32B107D9F721E0AAE289
:10009000B1E001C01D92A23DB207E1F710E0C5E357
:1000A000D0E004C02197FE010E947303C433D1073E
:1000B000C9F70E943F020C947E030C940000CF927B
:1000C000DF92EF92FF920F931F93CF93DF936C0118
:1000D0007A018B01C0E0D0E0CE15DF0589F0D801B0
:1000E0006D918D01D601ED91FC910190F081E02D93
:1000F000C6010995892B11F47E0102C02196ECCF2F
:10010000C701DF91CF911F910F91FF90EF90DF908A
:10011000CF900895FC01918D828D981761F0828DAA
:10012000DF01A80FB11D5D968C91928D9F5F9F732B
:10013000928F90E008958FEF9FEF0895FC01918DCD
:10014000828D981731F0828DE80FF11D858D90E03A
:1001500008958FEF9FEF0895FC01918D228D892FD7
:1001600090E0805C9F4F821B91098F7399270895BF
:1001700085E391E00E94AC0021E0892B09F420E0A6
:10018000822F0895FC01848DDF01A80FB11DA35AB1
:10019000BF4F2C91848D90E001968F739927848FA7
:1001A000A689B7892C93A089B1898C9180648C939E
:1001B000938D848D981306C00288F389E02D808189
:1001C0008F7D80830895EF92FF920F931F93CF93BB
:1001D000DF93EC0181E0888F9B8D8C8D981305C097
:1001E000E889F989808185FD24C0F62E0B8D10E009
:1001F0000F5F1F4F0F731127E02E8C8DE8120CC07C
:100200000FB607FCFACFE889F989808185FFF5CF21
:10021000CE010E94C200F1CF8B8DFE01E80FF11DCF
:10022000E35AFF4FF0820B8FEA89FB89808180625D
:1002300007C0EE89FF896083E889F989808180643D
:10024000808381E090E0DF91CF911F910F91FF902B
:10025000EF900895CF93DF93EC01888D8823C9F048
:10026000EA89FB89808185FD05C0A889B9898C91BF
:1002700086FD0FC00FB607FCF5CF808185FFF2CF5A
:10028000A889B9898C9185FFEDCFCE010E94C2006B
:10029000E7CFDF91CF91089580E090E0892B29F09E
:1002A0000E94B80081110C94000008953FB7F894A3
:1002B00080912F0190913001A0913101B0913201D4
:1002C00026B5A89B05C02F3F19F00196A11DB11DB1
:1002D0003FBFBA2FA92F982F8827820F911DA11DEC
:1002E000B11DBC01CD0142E0660F771F881F991F29
:1002F0004A95D1F70895009769F0FC01019000201C
:10030000E9F73197AF01481B590BBC0185E391E038
:100310000C945F0080E090E00895CF93DF930E94FB
:100320007B01EC0180E191E00E947B018C0F9D1F1D
:10033000DF91CF9108950E9479031F920F920FB61B
:100340000F9211242F933F934F935F936F937F935B
:100350008F939F93AF93BF93EF93FF9385E391E0C8
:100360000E94C200FF91EF91BF91AF919F918F9139
:100370007F916F915F914F913F912F910F900FBEA1
:100380000F901F9018951F920F920FB60F92112485
:100390002F938F939F93EF93FF93E0914501F091FB
:1003A00046018081E0914B01F0914C0182FD12C029
:1003B000908180914E018F5F8F7320914F01821742
:1003C00051F0E0914E01F0E0EB5CFE4F958F809391
:1003D0004E0101C08081FF91EF919F918F912F91EC
:1003E0000F900FBE0F901F9018951F920F920FB68F
:1003F0000F9211242F933F938F939F93AF93BF93AB
:1004000080912B0190912C01A0912D01B0912E0192
:1004100030912A0123E0230F2D3720F40196A11DEE
:10042000B11D05C026E8230F0296A11DB11D209322
:100430002A0180932B0190932C01A0932D01B0935E
:100440002E0180912F0190913001A0913101B09146
:1004500032010196A11DB11D80932F0190933001AF
:10046000A0933101B0933201BF91AF919F918F91D1
:100470003F912F910F900FBE0F901F901895CF9323
:10048000DF93CDB7DEB7A1970FB6F894DEBF0FBEEE
:10049000CDBF789484B5826084BD84B5816084BD0D
:1004A00085B5826085BD85B5816085BD80916E0012
:1004B000816080936E001092810080918100826043
:1004C0008093810080918100816080938100809180
:1004D00080008160809380008091B100846080936F
:1004E000B1008091B00081608093B00080917A006B
:1004F000846080937A0080917A00826080937A0091
:1005000080917A00816080937A0080917A0080687F
:1005100080937A001092C100E0914501F09146016C
:1005200082E08083E0914101F09142011082E091EC
:100530004301F09144018FEC808310924D01E091D2
:100540004901F0914A0186E08083E0914701F091F2
:100550004801808180618083E0914701F0914801EA
:10056000808188608083E0914701F091480180811B
:1005700080688083E0914701F091480180818F7D00
:1005800080839AE0C92ED12CE12CF12C809134018A
:10059000282F30E040E050E019A28E010F5D1F4F80
:1005A000CA01B901A70196010E945103605DF801DB
:1005B00062938F01211531054105510589F7CF015E
:1005C0000E947B01809134018170809333018130DE
:1005D00019F083E191E002C08FE191E00E948D016A
:1005E0000E9456012B013C0188EE882E83E0982E54
:1005F000A12CB12C0E945601DC01CB018419950974
:10060000A609B709883E9340A105B10558F0F1E06D
:100610008F1A9108A108B10828EE420E23E0521E5D
:10062000611C711C81149104A104B10419F780911B
:1006300034018F5F843119F08093340102C010922D
:1006400034010E944C01A2CFE5E3F1E01382128253
:1006500088EE93E0A0E0B0E084839583A683B7831F
:1006600084E091E09183808385EC90E09587848796
:1006700084EC90E09787868780EC90E0918B808B6C
:1006800081EC90E0938B828B82EC90E0958B848B55
:1006900086EC90E0978B868B118E128E138E148EC3
:1006A0000895A1E21A2EAA1BBB1BFD010DC0AA1FB3
:1006B000BB1FEE1FFF1FA217B307E407F50720F0CB
:1006C000A21BB30BE40BF50B661F771F881F991F46
:1006D0001A9469F760957095809590959B01AC018F
:1006E000BD01CF010895EE0FFF1F0590F491E02D9D
:1006F000099481E090E0F8940C947E03F894FFCF85
:1007000000000000E3005F00AC008A009E002A01A8
:100710000D0A002D2D434946542053415949002DBF
:0A0720002D54454B20534159490068
:107E0000112484B714BE81FFF0D085E080938100F7
:107E100082E08093C00088E18093C10086E0809377
:107E2000C20080E18093C4008EE0C9D0259A86E02C
:107E300020E33CEF91E0309385002093840096BBD3
:107E4000B09BFECF1D9AA8958150A9F7CC24DD24C4
:107E500088248394B5E0AB2EA1E19A2EF3E0BF2EE7
:107E6000A2D0813461F49FD0082FAFD0023811F036
:107E7000013811F484E001C083E08DD089C08234E0
:107E800011F484E103C0853419F485E0A6D080C0E4
:107E9000853579F488D0E82EFF2485D0082F10E0AE
:107EA000102F00270E291F29000F111F8ED06801E7
:107EB0006FC0863521F484E090D080E0DECF843638
:107EC00009F040C070D06FD0082F6DD080E0C81688
:107ED00080E7D80618F4F601B7BEE895C0E0D1E017
:107EE00062D089930C17E1F7F0E0CF16F0E7DF06D8
:107EF00018F0F601B7BEE89568D007B600FCFDCFD4
:107F0000A601A0E0B1E02C9130E011968C91119780
:107F100090E0982F8827822B932B1296FA010C0160
:107F200087BEE89511244E5F5F4FF1E0A038BF0790
:107F300051F7F601A7BEE89507B600FCFDCF97BE46
:107F4000E89526C08437B1F42ED02DD0F82E2BD052
:107F50003CD0F601EF2C8F010F5F1F4F84911BD097
:107F6000EA94F801C1F70894C11CD11CFA94CF0C13
:107F7000D11C0EC0853739F428D08EE10CD085E9AC
:107F80000AD08FE07ACF813511F488E018D01DD067
:107F900080E101D065CF982F8091C00085FFFCCF94
:107FA0009093C60008958091C00087FFFCCF809118
:107FB000C00084FD01C0A8958091C6000895E0E648
:107FC000F0E098E1908380830895EDDF803219F02E
:107FD00088E0F5DFFFCF84E1DECF1F93182FE3DFCA
:107FE0001150E9F7F2DF1F91089580E0E8DFEE27F6
:047FF000FF270994CA
:027FFE00040479
:0400000300007E007B
:00000001FF
