:100000000C9467000C9484000C9484000C9484007D
:100010000C9484000C9484000C9484000C94840050
:100020000C9484000C9484000C9484000C94840040
:100030000C9484000C9484000C9484000C94840030
:100040000C9416020C9484000C9484000C9484008C
:100050000C9484000C9484000C9484000C94840010
:100060000C9484000C948400710178018401950142
:1000700097019E01AA01BB01D101D3010000000834
:10008000000201000003040700000000000000005F
:1000900000000000250028002B00000000002400C4
:1000A00027002A00040404040404040402020202D7
:1000B000020203030303030301020408102040802B
:1000C000010204081020010204081020700311240A
:1000D0001FBECFEFD8E0DEBFCDBF21E0A0E0B1E092
:1000E00001C01D92A532B207E1F710E0C7E6D0E0EB
:1000F00004C02197FE010E94DA03C636D107C9F772
:100100000E9460020C9416040C94000090E0FC0124
:10011000E854FF4F2491FC01EC55FF4F8491882354
:1001200099F090E0880F991FFC01E656FF4FA591CA
:10013000B491FC01E057FF4F859194918FB7F894EB
:10014000EC91E22BEC938FBF089590E0FC01E45812
:10015000FF4F3491FC01E854FF4F2491FC01EC5512
:10016000FF4FE491EE2309F43BC0332339F13330E0
:1001700091F038F43130A9F0323001F584B58F7D3B
:1001800012C0373091F03830A1F03430B9F480919A
:1001900080008F7D03C0809180008F7780938000E6
:1001A0000DC084B58F7784BD09C08091B0008F7772
:1001B00003C08091B0008F7D8093B000F0E0EE0F1F
:1001C000FF1FE057FF4FA591B4918FB7F894EC91C2
:1001D000611103C020952E2301C02E2B2C938FBFBD
:1001E0000895CF93DF93EC01809113019091140156
:1001F000029709F5C130D10569F024F42097D9F4AC
:1002000060E009C0C230D10561F0C330D10599F476
:1002100060E008C061E0809117010E94A50061E0E4
:1002200006C061E0809117010E94A50060E0809106
:1002300019010E94A5008091130190911401049767
:1002400009F03FC0C130D105B9F04CF42097C9F591
:1002500061E0809117010E94A50060E013C0C230E8
:10026000D105D9F0C330D10561F561E08091170166
:100270000E94A50060E017C060E0809117010E9415
:10028000A50061E0809119010E94A50061E08091C4
:100290001B010E94A50060E010C060E08091170182
:1002A0000E94A50061E0809119010E94A50060E014
:1002B00080911B010E94A50061E080911D010E94B8
:1002C000A5008091130190911401059709F086C053
:1002D000CA30D10508F082C0FE01EC5CFF4F0C94DF
:1002E000DA0360E0809117010E94A50061E061C01F
:1002F00060E0809117010E94A50061E080911901E2
:100300000E94A50060E05AC060E0809117010E9441
:10031000A50061E0809119010E94A50060E0809134
:100320001B010E94A50061E04EC060E001C061E0D9
:10033000809117010E94A50061E006C061E08091F4
:1003400017010E94A50060E0809119010E94A5009C
:1003500060E00BC061E0809117010E94A50060E0A1
:10036000809119010E94A50061E080911B010E940B
:10037000A50061E010C061E0809117010E94A50016
:1003800060E0809119010E94A50061E080911B014D
:100390000E94A50060E080911D010E94A50060E020
:1003A00017C061E001C060E0809117010E94A500C4
:1003B00060E0809119010E94A50061E080911B011D
:1003C0000E94A50060E080911D010E94A50061E0EF
:1003D00080911F01DF91CF910C94A500DF91CF9107
:1003E00008953FB7F8948091050190910601A0917E
:1003F0000701B091080126B5A89B05C02F3F19F051
:100400000196A11DB11D3FBFBA2FA92F982F882794
:10041000820F911DA11DB11DBC01CD0142E0660FEF
:10042000771F881F991F4A95D1F708951F920F9241
:100430000FB60F9211242F933F938F939F93AF93F7
:10044000BF938091010190910201A0910301B091AD
:1004500004013091000123E0230F2D3720F4019691
:10046000A11DB11D05C026E8230F0296A11DB11DD7
:10047000209300018093010190930201A093030156
:10048000B09304018091050190910601A0910701AC
:10049000B09108010196A11DB11D809305019093B3
:1004A0000601A0930701B0930801BF91AF919F91FE
:1004B0008F913F912F910F900FBE0F901F90189525
:1004C000789484B5826084BD84B5816084BD85B52F
:1004D000826085BD85B5816085BD80916E0081603B
:1004E00080936E00109281008091810082608093E1
:1004F00081008091810081608093810080918000E3
:100500008160809380008091B10084608093B1000D
:100510008091B00081608093B00080917A00846007
:1005200080937A0080917A00826080937A00809133
:100530007A00816080937A0080917A00806880934D
:100540007A001092C10098EC892E912CA12CB12C2C
:1005500022242394312C00E010E0209111013091ED
:100560001201032E000C440B550B60E077E883E981
:1005700093E00E94BB03CA01B901A50194010E9446
:10058000BB0320930D0130930E0140930F01509354
:10059000100180E098E090930A0180930901309265
:1005A0000C0120920B01C0E0D8E0209709F46AC04A
:1005B0000E94F1014090210150902201609023019E
:1005C000709024016B017C01C418D508E608F70877
:1005D00040900D0150900E0160900F01709010013D
:1005E000C414D504E604F70400F36093210170936A
:1005F0002201809323019093240120910B013091DB
:100600000C0180911501909116012130310589F47A
:10061000019690931601809315012091110130915C
:10062000120182179307C1F410921601109215015E
:1006300013C0892B41F48091110190911201909384
:100640001601809315018091150190911601019773
:1006500090931601809315012197209113013091F9
:10066000140180911501909116012530310519F47E
:100670006AE070E002C064E070E00E94A7030E949C
:10068000F10093CF0E94F1016B017C0188EE482EAE
:1006900083E0582E612C712C0E94F101DC01CB010A
:1006A0008C199D09AE09BF09883E9340A105B1058B
:1006B00058F091E0491A51086108710828EEC20EFD
:1006C00023E0D21EE11CF11C4114510461047104A9
:1006D00019F70115110509F440CF0E9400003BCF26
:1006E0000F931F93CF93DF93CBE0D1E01B861A8645
:1006F000198218821E8A1F8A188E198E04E010E053
:100700001F830E8386E090E09D878C8788E090E0D1
:100710009F878E8787E090E0998B888B89E090E0B7
:100720009B8B8A8B86E00E9486008E850E948600C5
:1007300088890E9486008A890E9486001D8A1C8AF8
:1007400019870887DF91CF911F910F91089597FB2B
:10075000072E16F4009407D077FD09D00E94E0031D
:1007600007FC05D03EF4909581959F4F08957095B4
:1007700061957F4F0895052E97FB1EF400940E940B
:10078000D20357FD07D00E94F40307FC03D04EF4B8
:100790000C94D20350954095309521953F4F4F4F83
:1007A0005F4F089590958095709561957F4F8F4F1D
:1007B0009F4F0895EE0FFF1F0590F491E02D0994CF
:1007C000AA1BBB1B51E107C0AA1FBB1FA617B70777
:1007D00010F0A61BB70B881F991F5A95A9F7809593
:1007E0009095BC01CD010895A1E21A2EAA1BBB1B56
:1007F000FD010DC0AA1FBB1FEE1FFF1FA217B307ED
:10080000E407F50720F0A21BB30BE40BF50B661F02
:10081000771F881F991F1A9469F7609570958095C6
:1008200090959B01AC01BD01CF010895F894FFCFD5
:107E0000112484B714BE81FFF0D085E080938100F7
:107E100082E08093C00088E18093C10086E0809377
:107E2000C20080E18093C4008EE0C9D0259A86E02C
:107E300020E33CEF91E0309385002093840096BBD3
:107E4000B09BFECF1D9AA8958150A9F7CC24DD24C4
:107E500088248394B5E0AB2EA1E19A2EF3E0BF2EE7
:107E6000A2D0813461F49FD0082FAFD0023811F036
:107E7000013811F484E001C083E08DD089C08234E0
:107E800011F484E103C0853419F485E0A6D080C0E4
:107E9000853579F488D0E82EFF2485D0082F10E0AE
:107EA000102F00270E291F29000F111F8ED06801E7
:107EB0006FC0863521F484E090D080E0DECF843638
:107EC00009F040C070D06FD0082F6DD080E0C81688
:107ED00080E7D80618F4F601B7BEE895C0E0D1E017
:107EE00062D089930C17E1F7F0E0CF16F0E7DF06D8
:107EF00018F0F601B7BEE89568D007B600FCFDCFD4
:107F0000A601A0E0B1E02C9130E011968C91119780
:107F100090E0982F8827822B932B1296FA010C0160
:107F200087BEE89511244E5F5F4FF1E0A038BF0790
:107F300051F7F601A7BEE89507B600FCFDCF97BE46
:107F4000E89526C08437B1F42ED02DD0F82E2BD052
:107F50003CD0F601EF2C8F010F5F1F4F84911BD097
:107F6000EA94F801C1F70894C11CD11CFA94CF0C13
:107F7000D11C0EC0853739F428D08EE10CD085E9AC
:107F80000AD08FE07ACF813511F488E018D01DD067
:107F900080E101D065CF982F8091C00085FFFCCF94
:107FA0009093C60008958091C00087FFFCCF809118
:107FB000C00084FD01C0A8958091C6000895E0E648
:107FC000F0E098E1908380830895EDDF803219F02E
:107FD00088E0F5DFFFCF84E1DECF1F93182FE3DFCA
:107FE0001150E9F7F2DF1F91089580E0E8DFEE27F6
:047FF000FF270994CA
:027FFE00040479
:0400000300007E007B
:00000001FF
