:100000000C945D000C9485000C9485000C94850084
:100010000C9485000C9485000C9485000C9485004C
:100020000C9485000C9485000C9485000C9485003C
:100030000C9485000C9485000C9485000C9485002C
:100040000C940C040C9485000C94DA030C94B40307
:100050000C9485000C9485000C9485000C9485000C
:100060000C9485000C94850000000008000201003B
:100070000003040700000000000000000000000072
:10008000250028002B0000000000240027002A0083
:10009000040404040404040402020202020203032E
:1000A0000303030301020408102040800102040836
:1000B0001020010204081020560411241FBECFEFA7
:1000C000D8E0DEBFCDBF11E0A0E0B1E0E4E8F1E1AF
:1000D00002C005900D92A433B107D9F721E0A4E343
:1000E000B1E001C01D92AA3FB207E1F710E0CDE5F3
:1000F000D0E004C02197FE010E94B508CC35D1079D
:10010000C9F70E94A1040C94C0080C94000090E070
:10011000FC01EC55FF4F2491FC01E057FF4F849107
:10012000882399F090E0880F991FFC01EA57FF4F50
:10013000A591B491FC01E458FF4F859194918FB73C
:10014000F894EC91E22BEC938FBF0895CF92DF925D
:10015000EF92FF920F931F93CF93DF936C017A017D
:100160008B01C0E0D0E0CE15DF0589F0D8016D919C
:100170008D01D601ED91FC910190F081E02DC60139
:100180000995892B11F47E0102C02196ECCFC7019D
:10019000DF91CF911F910F91FF90EF90DF90CF9063
:1001A0000895FC01538D448D252F30E0842F90E07D
:1001B000821B930B541710F0CF9608950197089562
:1001C000FC01918D828D981761F0828DDF01A80F5F
:1001D000B11D5D968C91928D9F5F9F73928F90E081
:1001E00008958FEF9FEF0895FC01918D828D9817F0
:1001F00031F0828DE80FF11D858D90E008958FEF2D
:100200009FEF0895FC01918D228D892F90E0805CF5
:100210009F4F821B91098F739927089585E491E080
:100220000E94020121E0892B09F420E0822F089529
:10023000FC01848DDF01A80FB11DA35ABF4F2C9183
:10024000848D90E001968F739927848FA689B78952
:100250002C93A089B1898C9180648C93938D848D2B
:10026000981306C00288F389E02D80818F7D8083FA
:100270000895EF92FF920F931F93CF93DF93EC01BA
:1002800081E0888F9B8D8C8D981305C0E889F98952
:10029000808185FD24C0F62E0B8D10E00F5F1F4F6F
:1002A0000F731127E02E8C8DE8120CC00FB607FCDF
:1002B000FACFE889F989808185FFF5CFCE010E94C8
:1002C0001801F1CF8B8DFE01E80FF11DE35AFF4FAE
:1002D000F0820B8FEA89FB898081806207C0EE89FA
:1002E000FF896083E889F98980818064808381E067
:1002F00090E0DF91CF911F910F91FF90EF900895C3
:10030000CF93DF93EC01888D8823C9F0EA89FB89BC
:10031000808185FD05C0A889B9898C9186FD0FC0B3
:100320000FB607FCF5CF808185FFF2CFA889B98988
:100330008C9185FFEDCFCE010E941801E7CFDF91B0
:10034000CF91089580E090E0892B29F00E940E0162
:1003500081110C940000089590E0FC01E859FF4FD2
:100360003491FC01EC55FF4F2491FC01E057FF4F05
:10037000E491EE2309F43BC0332339F1333091F09B
:1003800038F43130A9F0323001F584B58F7D12C0D8
:10039000373091F03830A1F03430B9F480918000DA
:1003A0008F7D03C0809180008F77809380000DC087
:1003B00084B58F7784BD09C08091B0008F7703C06A
:1003C0008091B0008F7D8093B000F0E0EE0FFF1FB2
:1003D000E458FF4FA591B4918FB7F894EC91611157
:1003E00003C020952E2301C02E2B2C938FBF089580
:1003F0003FB7F8948091390190913A01A0913B0167
:10040000B0913C0126B5A89B05C02F3F19F001967D
:10041000A11DB11D3FBFBA2FA92F982F8827820F8A
:10042000911DA11DB11DBC01CD0142E0660F771FDA
:10043000881F991F4A95D1F70895CF93DF93EC0158
:1004400060E08E810E94AC0161E08E810E94AC016F
:1004500060E08E810E94AC018BE891E00197F1F79A
:10046000DF91CF910895CF92DF92EF92FF920F9399
:100470001F93CF93DF937C016C0187E0C80ED11CE2
:10048000C0E0D0E0062F10E0B8010C2E02C0759538
:1004900067950A94E2F76170F60181916F010E94FD
:1004A000AC012196C430D10579F7C701DF91CF9116
:1004B0001F910F91FF90EF90DF90CF900C941D0251
:1004C000CF92DF92EF92FF920F931F93CF93DF9320
:1004D000EC01F62E642F8C810E94AC018D818F3F40
:1004E00019F060E00E94AC018F850F2D10E084FFB1
:1004F00025C06E0187E0C80ED11CE12CF12CB8019B
:100500000E2C02C0759567950A94E2F76170F601AA
:1005100081916F010E94AC01FFEFEF1AFF0A88E0A2
:10052000E816F10461F7CE01DF91CF911F910F9191
:10053000FF90EF90DF90CF900C941D02B80184E003
:10054000759567958A95E1F7CE010E9433026F2D6C
:10055000CE01DF91CF911F910F91FF90EF90DF902F
:10056000CF900C94330241E00E94600281E090E061
:10057000089540E00C946002EF92FF920F931F9356
:10058000CF93DF93EC01623018F08F8588608F87FE
:100590006B8B1C8A80E48D8B80E18E8B80E58F8B4A
:1005A0008C810E9487008D818F3F11F00E9487000F
:1005B0008E810E9487007E0187E0E80EF11C00E03A
:1005C00010E08F8584FD03C084E090E002C088E0E5
:1005D00090E00817190744F4F70181917F010E9408
:1005E00087000F5F1F4FEDCF8BE39DE00197F1F781
:1005F00060E08C810E94AC0160E08E810E94AC01C1
:100600008D818F3F19F060E00E94AC016F8564FD21
:100610001DC063E0CE010E9433020BE416E4C80162
:100620000197F1F763E0CE010E943302C801019700
:10063000F1F763E0CE010E94330283E592E0019777
:10064000F1F762E0CE010E94330216C06062CE0173
:100650000E94B9028BE496E40197F1F76F8560621E
:10066000CE010E94B90283E592E00197F1F76F8510
:100670006062CE010E94B9026F856062CE010E9465
:10068000B90284E0888B6CE0CE010E94B90261E07F
:10069000CE010E94B9028BE39FE10197F1F782E05E
:1006A000898B66E0CE01DF91CF911F910F91FF9072
:1006B000EF900C94B902089580E090E008950097BF
:1006C00069F0FC0101900020E9F73197AF01481B68
:1006D000590BBC0182EE91E00C94A60080E090E002
:1006E00008958F929F92AF92BF920F931F93CF93D3
:1006F000DF93CDB7DEB7A1970FB6F894DEBF0FBE7C
:10070000CDBF19A2423008F44AE08E010F5D1F4FA1
:10071000842E912CA12CB12CA50194010E94930848
:10072000E62FB901CA0101501109EA3014F4E05D65
:1007300001C0E95CD801EC93232B242B252B61F716
:10074000C8010E945F03A1960FB6F894DEBF0FBEEA
:10075000CDBFDF91CF911F910F91BF90AF909F9030
:100760008F9008950E94BB081F920F920FB60F92B0
:1007700011242F933F934F935F936F937F938F93A6
:100780009F93AF93BF93EF93FF9385E491E00E9413
:100790001801FF91EF91BF91AF919F918F917F9140
:1007A0006F915F914F913F912F910F900FBE0F90DE
:1007B0001F9018951F920F920FB60F9211242F932E
:1007C0008F939F93EF93FF93E0915501F091560122
:1007D0008081E0915B01F0915C0182FD12C090810B
:1007E00080915E018F5F8F7320915F01821751F0BE
:1007F000E0915E01F0E0EB5BFE4F958F80935E0130
:1008000001C08081FF91EF919F918F912F910F9067
:100810000FBE0F901F9018951F920F920FB60F9258
:1008200011242F933F938F939F93AF93BF93809106
:10083000350190913601A0913701B0913801309186
:10084000340123E0230F2D3720F40196A11DB11DA3
:1008500005C026E8230F0296A11DB11D2093340187
:100860008093350190933601A0933701B0933801FE
:100870008091390190913A01A0913B01B0913C01E6
:100880000196A11DB11D8093390190933A01A09367
:100890003B01B0933C01BF91AF919F918F913F91EC
:1008A0002F910F900FBE0F901F901895E5E4F1E087
:1008B0001382128288EE93E0A0E0B0E084839583F7
:1008C000A683B78384E091E09183808385EC90E0F8
:1008D0009587848784EC90E09787868780EC90E00A
:1008E000918B808B81EC90E0938B828B82EC90E0FB
:1008F000958B848B86EC90E0978B868B118E128E75
:10090000138E148EE2EEF1E01382128286E191E002
:100910009183808387E084838FEF858386E086835D
:1009200085E0878384E0808783E0818782E0828717
:100930001386148615861686178661E0CF010C94FF
:10094000BC02789484B5826084BD84B5816084BD26
:1009500085B5826085BD85B5816085BD80916E005D
:10096000816080936E00109281008091810082608E
:1009700080938100809181008160809381008091CB
:1009800080008160809380008091B10084608093BA
:10099000B1008091B00081608093B00080917A00B6
:1009A000846080937A0080917A00826080937A00DC
:1009B00080917A00816080937A0080917A008068CB
:1009C00080937A001092C100E0915501F091560198
:1009D00082E08083E0915101F09152011082E09118
:1009E0005301F09154018FEC808310925D01E091EE
:1009F0005901F0915A0186E08083E0915701F0910E
:100A00005801808180618083E0915701F091580105
:100A1000808188608083E0915701F0915801808146
:100A200080688083E0915701F091580180818F7D2B
:100A3000808362E082EE91E00E94BC02C1E4C09338
:100A40007C0080917A00806480937A0080917A00A3
:100A500086FDFCCF609178008091790070E0782B62
:100A6000072E000C880B990B0E946C0720E030ECDD
:100A70004FE754E40E94C90620E030E44CE955E415
:100A80000E942108609341017093420180934301C9
:100A90009093440120E030E040E251E40E94C90616
:100AA00060933D0170933E0180933F01909340011C
:100AB000E1E08091F5018111E0E0E195F0E0EE5197
:100AC000FE4F6489606882EE91E00E94B9028EE177
:100AD00091E00E945F03E091F501E23010F4E150F3
:100AE00001C0E1E0F0E0EE51FE4F6489606882EE03
:100AF00091E00E94B902C0903D01D0903E01E0908B
:100B00003F01F0904001A7019601C701B6010E9484
:100B10008E08882319F088E291E01AC04601570137
:100B2000E894B7F82FEF3FEF4FE75FE7C501B40157
:100B30000E948E0881110FC02FEF3FEF4FE75FE754
:100B4000C501B4010E94C40618162CF48CE291E091
:100B50000E945F0382C02FEF3FEF4FE75FE4C701C2
:100B6000B6010E941C0818161CF480E391E0F0CF37
:100B70002FEF3FEF4FE75FECC701B6010E94C406BD
:100B800087FDF3CF20E030E0A901C701B6010E9444
:100B9000C40687FF0FC0E091E201F091E3010190EC
:100BA000F081E02D6DE282EE91E00995F7FAF09484
:100BB000F7F8F0942AE037ED43EA5BE3C701B601AA
:100BC0000E9458064B015C010E943B076B017C01AF
:100BD0000E946A079B01AC01C501B4010E9457063F
:100BE0004B015C014AE0C701B6010E947103E0912C
:100BF000E201F091E3010190F081E02D6EE282EEDE
:100C000091E0099520E030E040E251E4C501B401F3
:100C10000E9421084B015C010E943B076B01E12C03
:100C2000F12C4AE0C701B6010E947103C701B60169
:100C30000E946A079B01AC01C501B4010E945706DE
:100C400020E030E040E251E40E9421080E943B078E
:100C500080E090E04AE00E9471030E94F8014B019D
:100C60005C0188EEC82E83E0D82EE12CF12C0E9486
:100C7000F801DC01CB0188199909AA09BB09883E52
:100C80009340A105B10558F021E0C21AD108E1084E
:100C9000F10888EE880E83E0981EA11CB11CC114D7
:100CA000D104E104F10419F70E94A201C8CE505802
:100CB000BB27AA270E946F060C94E2070E94D40764
:100CC00038F00E94DB0720F039F49F3F19F426F436
:100CD0000C94D1070EF4E095E7FB0C94CB07E92FB9
:100CE0000E94F30758F3BA17620773078407950742
:100CF00020F079F4A6F50C9415080EF4E0950B2E6F
:100D0000BA2FA02D0B01B90190010C01CA01A0015D
:100D10001124FF27591B99F0593F50F4503E68F1B8
:100D20001A16F040A22F232F342F4427585FF3CFF9
:100D3000469537952795A795F0405395C9F77EF4CA
:100D40001F16BA0B620B730B840BBAF09150A1F013
:100D5000FF0FBB1F661F771F881FC2F70EC0BA0F99
:100D6000621F731F841F48F4879577956795B79521
:100D7000F7959E3F08F0B0CF9395880F08F099271C
:100D8000EE0F9795879508950E94A70708F481E0D4
:100D900008950E94DD060C94E2070E94DB0758F0DC
:100DA0000E94D40740F029F45F3F29F00C94CB0750
:100DB00051110C9416080C94D1070E94F30768F3A4
:100DC0009923B1F3552391F3951B550BBB27AA2704
:100DD00062177307840738F09F5F5F4F220F331F3E
:100DE000441FAA1FA9F335D00E2E3AF0E0E832D006
:100DF00091505040E695001CCAF72BD0FE2F29D009
:100E0000660F771F881FBB1F261737074807AB07DA
:100E1000B0E809F0BB0B802DBF01FF2793585F4F4F
:100E20003AF09E3F510578F00C94CB070C941608CD
:100E30005F3FE4F3983ED4F3869577956795B79531
:100E4000F7959F5FC9F7880F911D9695879597F93C
:100E50000895E1E0660F771F881FBB1F62177307B5
:100E60008407BA0720F0621B730B840BBA0BEE1FCA
:100E700088F7E09508950E94FB0788F09F5798F047
:100E8000B92F9927B751B0F0E1F0660F771F881F8F
:100E9000991F1AF0BA95C9F714C0B13091F00E94A9
:100EA0001508B1E008950C941508672F782F88274E
:100EB000B85F39F0B93FCCF3869577956795B395D0
:100EC000D9F73EF490958095709561957F4F8F4F3F
:100ED0009F4F0895E89409C097FB3EF49095809544
:100EE000709561957F4F8F4F9F4F9923A9F0F92FF0
:100EF00096E9BB279395F695879577956795B7956E
:100F0000F111F8CFFAF4BB0F11F460FF1BC06F5F53
:100F10007F4F8F4F9F4F16C0882311F096E911C065
:100F2000772321F09EE8872F762F05C0662371F086
:100F300096E8862F70E060E02AF09A95660F771F9A
:100F4000881FDAF7880F9695879597F90895990F76
:100F50000008550FAA0BE0E8FEEF16161706E80783
:100F6000F907C0F012161306E407F50798F0621BA4
:100F7000730B840B950B39F40A2661F0232B242B79
:100F8000252B21F408950A2609F4A140A6958FEF98
:100F9000811D811D089597F99F6780E870E060E0EA
:100FA00008959FEF80EC089500240A941616170602
:100FB00018060906089500240A941216130614064A
:100FC00005060895092E0394000C11F4882352F0AD
:100FD000BB0F40F4BF2B11F460FF04C06F5F7F4F65
:100FE0008F4F9F4F089557FD9058440F551F59F04C
:100FF0005F3F71F04795880F97FB991F61F09F3F06
:1010000079F087950895121613061406551FF2CF2E
:101010004695F1DF08C0161617061806991FF1CF7E
:1010200086957105610508940895E894BB276627A5
:101030007727CB0197F908950E94A70708F48FEF4F
:1010400008950E9434080C94E2070E94D40738F0F7
:101050000E94DB0720F0952311F00C94CB070C9431
:10106000D10711240C9416080E94F30770F3959F82
:10107000C1F3950F50E0551F629FF001729FBB278F
:10108000F00DB11D639FAA27F00DB11DAA1F649F2B
:101090006627B00DA11D661F829F2227B00DA11DDE
:1010A000621F739FB00DA11D621F839FA00D611D64
:1010B000221F749F3327A00D611D231F849F600D85
:1010C000211D822F762F6A2F11249F5750409AF0AE
:1010D000F1F088234AF0EE0FFF1FBB1F661F771F3A
:1010E000881F91505040A9F79E3F510580F00C9405
:1010F000CB070C9416085F3FE4F3983ED4F3869533
:1011000077956795B795F795E7959F5FC1F7FE2BA4
:10111000880F911D9695879597F908950E94A707C6
:10112000880B990B0895A1E21A2EAA1BBB1BFD0187
:101130000DC0AA1FBB1FEE1FFF1FA217B307E407B6
:10114000F50720F0A21BB30BE40BF50B661F771F0E
:10115000881F991F1A9469F76095709580959095EE
:101160009B01AC01BD01CF010895EE0FFF1F05905B
:10117000F491E02D099481E090E0F8940C94C0087B
:04118000F894FFCF11
:10118400000000003901A600D10080010201E00046
:10119400F40000000000B302A6005C035B03536983
:1011A40063616B6C696B3A006E616E00696E660018
:0411B4006F766600EC
:00000001FF
