:100000000C945D000C9485000C9485000C94850084
:100010000C9485000C9485000C9485000C9485004C
:100020000C9485000C9485000C9485000C9485003C
:100030000C9485000C9485000C9485000C9485002C
:100040000C9420020C9485000C9490020C946A028B
:100050000C9485000C9485000C9485000C9485000C
:100060000C9485000C94850000000008000201003B
:100070000003040700000000000000000000000072
:10008000250028002B0000000000240027002A0083
:10009000040404040404040402020202020203032E
:1000A0000303030301020408102040800102040836
:1000B0001020010204081020990311241FBECFEF65
:1000C000D8E0DEBFCDBF11E0A0E0B1E0E6EAF7E0A6
:1000D00002C005900D92A634B107D9F721E0A6E43D
:1000E000B1E001C01D92AE3EB207E1F710E0CDE5F0
:1000F000D0E004C02197FE010E94C603CC35D10791
:10010000C9F70E94C2020C94D1030C94000090E045
:10011000FC01EC55FF4F2491FC01E057FF4F849107
:10012000882399F090E0880F991FFC01EA57FF4F50
:10013000A591B491FC01E458FF4F859194918FB73C
:10014000F894EC91E22BEC938FBF0895CF92DF925D
:10015000EF92FF920F931F93CF93DF936C017A017D
:100160008B01C0E0D0E0CE15DF0589F0D8016D919C
:100170008D01D601ED91FC910190F081E02DC60139
:100180000995892B11F47E0102C02196ECCFC7019D
:10019000DF91CF911F910F91FF90EF90DF90CF9063
:1001A0000895089580E090E00895FC01538D448DFA
:1001B000252F30E0842F90E0821B930B541710F012
:1001C000CF96089501970895FC01918D828D98171F
:1001D00061F0828DDF01A80FB11D5D968C91928D2B
:1001E0009F5F9F73928F90E008958FEF9FEF089528
:1001F000FC01918D828D981731F0828DE80FF11DF1
:10020000858D90E008958FEF9FEF0895FC01918D0B
:10021000228D892F90E0805C9F4F821B91098F7304
:100220009927089581E591E00E94060121E0892B3C
:1002300009F420E0822F0895FC01848DDF01A80FCE
:10024000B11DA35ABF4F2C91848D90E001968F73FE
:100250009927848FA689B7892C93A089B1898C911D
:1002600080648C93938D848D981306C00288F389E3
:10027000E02D80818F7D80830895EF92FF920F9310
:100280001F93CF93DF93EC0181E0888F9B8D8C8D42
:10029000981305C0E889F989808185FD24C0F62E70
:1002A0000B8D10E00F5F1F4F0F731127E02E8C8D09
:1002B000E8120CC00FB607FCFACFE889F9898081F3
:1002C00085FFF5CFCE010E941C01F1CF8B8DFE0181
:1002D000E80FF11DE35AFF4FF0820B8FEA89FB898B
:1002E0008081806207C0EE89FF896083E889F9898F
:1002F00080818064808381E090E0DF91CF911F91C5
:100300000F91FF90EF900895CF93DF93EC01888DCC
:100310008823C9F0EA89FB89808185FD05C0A88909
:10032000B9898C9186FD0FC00FB607FCF5CF80818F
:1003300085FFF2CFA889B9898C9185FFEDCFCE01D9
:100340000E941C01E7CFDF91CF91089580E090E0FB
:10035000892B29F00E94120181110C94000008954C
:1003600090E0FC01E859FF4F3491FC01EC55FF4F40
:100370002491FC01E057FF4FE491EE2309F43BC0C8
:10038000332339F1333091F038F43130A9F0323081
:1003900001F584B58F7D12C0373091F03830A1F06F
:1003A0003430B9F4809180008F7D03C0809180004B
:1003B0008F77809380000DC084B58F7784BD09C08E
:1003C0008091B0008F7703C08091B0008F7D8093C3
:1003D000B000F0E0EE0FFF1FE458FF4FA591B4917D
:1003E0008FB7F894EC91611103C020952E2301C0C2
:1003F0002E2B2C938FBF0895CF93DF93009779F026
:10040000FC0101900020E9F73197AF01481B590B1F
:10041000BC0181E591E00E94A600EC0102C0C0E0B1
:10042000D0E042E050E062E171E081E591E00E94BD
:10043000A6008C0F9D1FDF91CF9108950E94CC03E1
:100440001F920F920FB60F9211242F933F938F9309
:100450009F93AF93BF9380914D0190914E01A091D6
:100460004F01B091500130914C0123E0230F2D3703
:1004700020F40196A11DB11D05C026E8230F0296A8
:10048000A11DB11D20934C0180934D0190934E010D
:10049000A0934F01B0935001809148019091490180
:1004A000A0914A01B0914B010196A11DB11D80930D
:1004B000480190934901A0934A01B0934B01BF9129
:1004C000AF919F918F913F912F910F900FBE0F9001
:1004D0001F9018951F920F920FB60F9211242F9311
:1004E0003F934F935F936F937F938F939F93AF93BC
:1004F000BF93EF93FF9381E591E00E941C01FF9170
:10050000EF91BF91AF919F918F917F916F915F918B
:100510004F913F912F910F900FBE0F901F90189504
:100520001F920F920FB60F9211242F938F939F93C8
:10053000EF93FF93E0916101F09162018081E0917E
:100540006701F091680182FD12C0908180916A017B
:100550008F5F8F7320916B01821751F0E0916A01D8
:10056000F0E0EF5AFE4F958F80936A0101C08081C1
:10057000FF91EF919F918F912F910F900FBE0F9050
:100580001F901895789484B5826084BD84B581608D
:1005900084BD85B5826085BD85B5816085BD80914E
:1005A0006E00816080936E001092810080918100C6
:1005B00082608093810080918100816080938100BE
:1005C000809180008160809380008091B100846080
:1005D0008093B1008091B00081608093B0008091E1
:1005E0007A00846080937A0080917A0082608093A0
:1005F0007A0080917A00816080937A0080917A00FD
:10060000806880937A001092C100E0916101F091BE
:10061000620182E08083E0915D01F0915E011082D1
:10062000E0915F01F09160018FEC8083109269018D
:10063000E0916501F091660186E08083E0916301BD
:10064000F0916401808180618083E0916301F09189
:100650006401808188608083E0916301F09164018E
:10066000808180688083E0916301F09164018081E2
:100670008F7D808387E00E94870088E00E9487004A
:1006800089E00E948700C0E4C0937C0080917A00DA
:10069000806480937A0080917A0086FDFCCF8091FF
:1006A00078002091790090E0922B909347018093FD
:1006B00046018E3721E0920778F460E088E00E94DE
:1006C000B00160E087E00E94B00161E089E00E9433
:1006D000B00185E191E028C09C012E5731402D32B8
:1006E000314078F461E088E00E94B00160E087E08A
:1006F0000E94B00161E089E00E94B00184E291E0D3
:1007000013C08B5A92408435914080F461E088E0B8
:100710000E94B00161E087E00E94B00161E089E0E1
:100720000E94B00185E391E00E94FC010E94A601B5
:10073000ABCFE1E5F1E01382128288EE93E0A0E016
:10074000B0E084839583A683B78384E091E09183AE
:10075000808385EC90E09587848784EC90E0978790
:10076000868780EC90E0918B808B81EC90E0938B7E
:10077000828B82EC90E0958B848B86EC90E0978B5B
:10078000868B118E128E138E148E0895EE0FFF1F1E
:100790000590F491E02D099481E090E0F8940C9498
:0607A000D103F894FFCF25
:1007A600000000003D01A600D50084010601E4001A
:1007B600F8000D0A007375207365766979657369AB
:1007C60020617A007375207365766979657369208F
:1007D6006F727461007375207365766979657369E4
:0607E6002074616D0000AB
:00000001FF
