:100000000C9435000C945D000C945D000C945D0024
:100010000C945D000C945D000C945D000C945D00EC
:100020000C945D000C945D000C945D000C945D00DC
:100030000C945D000C945D000C945D000C945D00CC
:100040000C941F020C945D000C94ED010C94C701FC
:100050000C945D000C945D000C945D000C945D00AC
:100060000C945D000C945D005F0311241FBECFEF64
:10007000D8E0DEBFCDBF11E0A0E0B1E0E6E7F7E0F9
:1000800002C005900D92AC32B107D9F721E0ACE285
:10009000B1E001C01D92A23DB207E1F710E0C5E357
:1000A000D0E004C02197FE010E94AE03C433D10703
:1000B000C9F70E9469020C94B9030C940000CF9216
:1000C000DF92EF92FF920F931F93CF93DF936C0118
:1000D0007A018B01C0E0D0E0CE15DF0589F0D801B0
:1000E0006D918D01D601ED91FC910190F081E02D93
:1000F000C6010995892B11F47E0102C02196ECCF2F
:10010000C701DF91CF911F910F91FF90EF90DF908A
:10011000CF900895FC01918D828D981761F0828DAA
:10012000DF01A80FB11D5D968C91928D9F5F9F732B
:10013000928F90E008958FEF9FEF0895FC01918DCD
:10014000828D981731F0828DE80FF11D858D90E03A
:1001500008958FEF9FEF0895FC01918D228D892FD7
:1001600090E0805C9F4F821B91098F7399270895BF
:1001700085E391E00E94AC0021E0892B09F420E0A6
:10018000822F0895FC01848DDF01A80FB11DA35AB1
:10019000BF4F2C91848D90E001968F739927848FA7
:1001A000A689B7892C93A089B1898C9180648C939E
:1001B000938D848D981306C00288F389E02D808189
:1001C0008F7D80830895EF92FF920F931F93CF93BB
:1001D000DF93EC0181E0888F9B8D8C8D981305C097
:1001E000E889F989808185FD24C0F62E0B8D10E009
:1001F0000F5F1F4F0F731127E02E8C8DE8120CC07C
:100200000FB607FCFACFE889F989808185FFF5CF21
:10021000CE010E94C200F1CF8B8DFE01E80FF11DCF
:10022000E35AFF4FF0820B8FEA89FB89808180625D
:1002300007C0EE89FF896083E889F989808180643D
:10024000808381E090E0DF91CF911F910F91FF902B
:10025000EF900895CF93DF93EC01888D8823C9F048
:10026000EA89FB89808185FD05C0A889B9898C91BF
:1002700086FD0FC00FB607FCF5CF808185FFF2CF5A
:10028000A889B9898C9185FFEDCFCE010E94C2006B
:10029000E7CFDF91CF91089580E090E0892B29F09E
:1002A0000E94B80081110C94000008953FB7F894A3
:1002B0008091310190913201A0913301B0913401CC
:1002C00026B5A89B05C02F3F19F00196A11DB11DB1
:1002D0003FBFBA2FA92F982F8827820F911DA11DEC
:1002E000B11DBC01CD0142E0660F771F881F991F29
:1002F0004A95D1F708958F929F92AF92BF92CF9275
:10030000DF92EF92FF920E9456014B015C0184EF55
:10031000C82EDD24D394E12CF12C0E945601DC017F
:10032000CB0188199909AA09BB09883E9340A10508
:10033000B10558F021E0C21AD108E108F10888EEB1
:10034000880E83E0981EA11CB11CC114D104E104E5
:10035000F10419F7FF90EF90DF90CF90BF90AF902E
:100360009F908F900895009769F0FC010190002004
:10037000E9F73197AF01481B590BBC0185E391E0C8
:100380000C945F0080E090E008950E94B4031F92F7
:100390000F920FB60F9211242F933F934F935F93B9
:1003A0006F937F938F939F93AF93BF93EF93FF933D
:1003B00085E391E00E94C200FF91EF91BF91AF9160
:1003C0009F918F917F916F915F914F913F912F916D
:1003D0000F900FBE0F901F9018951F920F920FB69F
:1003E0000F9211242F938F939F93EF93FF93E0919C
:1003F0004501F09146018081E0914B01F0914C0163
:1004000082FD12C0908180914E018F5F8F73209189
:100410004F01821751F0E0914E01F0E0EB5CFE4F8E
:10042000958F80934E0101C08081FF91EF919F9144
:100430008F912F910F900FBE0F901F9018951F92C4
:100440000F920FB60F9211242F933F938F939F9388
:10045000AF93BF9380912D0190912E01A0912F0118
:10046000B091300130912C0123E0230F2D3720F47F
:100470000196A11DB11D05C026E8230F0296A11DFE
:10048000B11D20932C0180932D0190932E01A093F8
:100490002F01B09330018091310190913201A091F0
:1004A0003301B09134010196A11DB11D809331013A
:1004B00090933201A0933301B0933401BF91AF9177
:1004C0009F918F913F912F910F900FBE0F901F9092
:1004D0001895CF93DF93CDB7DEB7A1970FB6F894F9
:1004E000DEBF0FBECDBF789484B5826084BD84B575
:1004F000816084BD85B5826085BD85B5816085BD1F
:1005000080916E00816080936E00109281008091D6
:10051000810082608093810080918100816080935E
:100520008100809180008160809380008091B10083
:1005300084608093B1008091B00081608093B000AE
:1005400080917A00846080937A0080917A00826042
:1005500080937A0080917A00816080937A00809104
:100560007A00806880937A001092C100E091450182
:10057000F091460182E08083E0914101F0914201D7
:100580001082E0914301F09144018FEC808310923E
:100590004D01E0914901F0914A0186E08083E091AC
:1005A0004701F0914801808180618083E09147019B
:1005B000F0914801808188608083E0914701F0914B
:1005C0004801808180688083E0914701F091480173
:1005D00080818F7D80835AE0852E912CA12CB12CB7
:1005E0008091000190910101883EF3E09F070CF09B
:1005F00059C06C01092E000CEE08FF0897FF26C0B9
:10060000E0913501F09136010190F081E02D6DE22D
:1006100085E391E0099522273327A9012C193D098B
:100620004E095F0919A2CE0181967C01CA01B90168
:10063000A50194010E948C03605DF70162937F0124
:10064000211531054105510589F715C0A70196010E
:1006500019A2CE0181967C01CA01B901A5019401BC
:100660000E948C03605DF70162937F0121153105C3
:100670004105510589F7C7010E94B30182E191E06C
:100680000E94B3010E947B018091000190910101C1
:100690009C01220F331F820F931F909301018093BF
:1006A00000019ECF85E191E00E94B30182E191E0DB
:1006B0000E94B3010E947B010E944C0191CFE5E3AF
:1006C000F1E01382128288EE93E0A0E0B0E0848330
:1006D0009583A683B78386E091E09183808385EC40
:1006E00090E09587848784EC90E09787868780ECFC
:1006F00090E0918B808B81EC90E0938B828B82ECED
:1007000090E0958B848B86EC90E0978B868B118E96
:10071000128E138E148E0895A1E21A2EAA1BBB1BF3
:10072000FD010DC0AA1FBB1FEE1FFF1FA217B307BD
:10073000E407F50720F0A21BB30BE40BF50B661FD3
:10074000771F881F991F1A9469F760957095809597
:1007500090959B01AC01BD01CF010895EE0FFF1FE5
:100760000590F491E02D099481E090E0F8940C94C8
:06077000B903F894FFCF6D
:10077600010000000000E3005F00AC008A009E005C
:100786002A010D0A00736F6E7563203130303027F1
:0C079600692061736D6973746972000062
:00000001FF
