:100000000C945D000C9485000C9485000C94850084
:100010000C9485000C9485000C9485000C9485004C
:100020000C9485000C9485000C9485000C9485003C
:100030000C9485000C9485000C9485000C9485002C
:100040000C94C9020C9485000C9439030C9413038E
:100050000C9485000C9485000C9485000C9485000C
:100060000C9485000C94850000000008000201003B
:100070000003040700000000000000000000000072
:10008000250028002B0000000000240027002A0083
:10009000040404040404040402020202020203032E
:1000A0000303030301020408102040800102040836
:1000B0001020010204081020300411241FBECFEFCD
:1000C000D8E0DEBFCDBF11E0A0E0B1E0E8E1F9E0AB
:1000D00002C005900D92A437B107D9F722E0A4E73A
:1000E000B1E001C01D92AF31B207E1F710E0CDE5FC
:1000F000D0E004C02197FE010E947F04CC35D107D7
:10010000C9F70E946B030C948A040C94000090E0E1
:10011000FC01EC55FF4F2491FC01E057FF4F849107
:10012000882399F090E0880F991FFC01EA57FF4F50
:10013000A591B491FC01E458FF4F859194918FB73C
:10014000F894EC91E22BEC938FBF0895CF92DF925D
:10015000EF92FF920F931F93CF93DF936C017A017D
:100160008B01C0E0D0E0CE15DF0589F0D8016D919C
:100170008D01D601ED91FC910190F081E02DC60139
:100180000995892B11F47E0102C02196ECCFC7019D
:10019000DF91CF911F910F91FF90EF90DF90CF9063
:1001A0000895089580E090E00895FC01538D448DFA
:1001B000252F30E0842F90E0821B930B541710F012
:1001C000CF96089501970895FC01918D828D98171F
:1001D00061F0828DDF01A80FB11D5D968C91928D2B
:1001E0009F5F9F73928F90E008958FEF9FEF089528
:1001F000FC01918D828D981731F0828DE80FF11DF1
:10020000858D90E008958FEF9FEF0895FC01918D0B
:10021000228D892F90E0805C9F4F821B91098F7304
:100220009927089582E891E00E94060121E0892B38
:1002300009F420E0822F0895FC01848DDF01A80FCE
:10024000B11DA35ABF4F2C91848D90E001968F73FE
:100250009927848FA689B7892C93A089B1898C911D
:1002600080648C93938D848D981306C00288F389E3
:10027000E02D80818F7D80830895EF92FF920F9310
:100280001F93CF93DF93EC0181E0888F9B8D8C8D42
:10029000981305C0E889F989808185FD24C0F62E70
:1002A0000B8D10E00F5F1F4F0F731127E02E8C8D09
:1002B000E8120CC00FB607FCFACFE889F9898081F3
:1002C00085FFF5CFCE010E941C01F1CF8B8DFE0181
:1002D000E80FF11DE35AFF4FF0820B8FEA89FB898B
:1002E0008081806207C0EE89FF896083E889F9898F
:1002F00080818064808381E090E0DF91CF911F91C5
:100300000F91FF90EF900895CF93DF93EC01888DCC
:100310008823C9F0EA89FB89808185FD05C0A88909
:10032000B9898C9186FD0FC00FB607FCF5CF80818F
:1003300085FFF2CFA889B9898C9185FFEDCFCE01D9
:100340000E941C01E7CFDF91CF91089580E090E0FB
:10035000892B29F00E94120181110C94000008954C
:1003600090E0FC01E859FF4F3491FC01EC55FF4F40
:100370002491FC01E057FF4FE491EE2309F43BC0C8
:10038000332339F1333091F038F43130A9F0323081
:1003900001F584B58F7D12C0373091F03830A1F06F
:1003A0003430B9F4809180008F7D03C0809180004B
:1003B0008F77809380000DC084B58F7784BD09C08E
:1003C0008091B0008F7703C08091B0008F7D8093C3
:1003D000B000F0E0EE0FFF1FE458FF4FA591B4917D
:1003E0008FB7F894EC91611103C020952E2301C0C2
:1003F0002E2B2C938FBF0895009769F0FC0101907C
:100400000020E9F73197AF01481B590BBC0182E886
:1004100091E00C94A60080E090E008958F929F9266
:10042000AF92BF920F931F93CF93DF93CDB7DEB7F9
:10043000A1970FB6F894DEBF0FBECDBF19A2423010
:1004400008F44AE08E010F5D1F4F842E912CA12CE1
:10045000B12CA50194010E945D04E62FB901CA01E7
:1004600001501109EA3014F4E05D01C0E95CD801E3
:10047000EC93232B242B252B61F7C8010E94FC0150
:10048000A1960FB6F894DEBF0FBECDBFDF91CF911E
:100490001F910F91BF90AF909F908F900895CF9232
:1004A000DF92EF92FF92CF93DF936B017C01E0919B
:1004B0008201F09183010190F081E02D6DE282E8EC
:1004C00091E00995EC0166277727CB016C197D092E
:1004D0008E099F094AE00E940E028C0F9D1FDF913A
:1004E000CF91FF90EF90DF90CF900895CF93DF935F
:1004F0000E94FC01EC0186E191E00E94FC018C0F5E
:100500009D1FDF91CF9108950E948504CF92DF92C5
:10051000EF92FF92CF93DF93EC01CC58DE4F28810E
:10052000FC01E050FF4F6C01990FEE08FF0821110C
:1005300015C061E080810E94B00181E08883F7FEF0
:1005400005C0C701B6010E944F0205C04AE0C701BD
:10055000B6010E940E0289E191E013C060E0808143
:100560000E94B0011882F7FE05C0C701B6010E94C3
:100570004F0205C04AE0C701B6010E940E028BE29D
:1005800091E0DF91CF91FF90EF90DF90CF900C94AE
:1005900076021F920F920FB60F9211242F933F9362
:1005A0008F939F93AF93BF9380917E0190917F0132
:1005B000A0918001B091810130917D0123E0230F52
:1005C0002D3720F40196A11DB11D05C026E8230F8B
:1005D0000296A11DB11D20937D0180937E01909311
:1005E0007F01A0938001B093810180917901909166
:1005F0007A01A0917B01B0917C010196A11DB11DF2
:100600008093790190937A01A0937B01B0937C0150
:10061000BF91AF919F918F913F912F910F900FBEFE
:100620000F901F9018951F920F920FB60F921124E2
:100630002F933F934F935F936F937F938F939F93EA
:10064000AF93BF93EF93FF9382E891E00E941C0168
:10065000FF91EF91BF91AF919F918F917F916F919A
:100660005F914F913F912F910F900FBE0F901F9070
:1006700018951F920F920FB60F9211242F938F93FC
:100680009F93EF93FF93E0919201F091930180810A
:10069000E0919801F091990182FD12C090818091C2
:1006A0009B018F5F8F7320919C01821751F0E09125
:1006B0009B01F0E0EE57FE4F958F80939B0101C0A8
:1006C0008081FF91EF919F918F912F910F900FBE9D
:1006D0000F901F901895789484B5826084BD84B57E
:1006E000816084BD85B5826085BD85B5816085BD2D
:1006F00080916E00816080936E00109281008091E5
:10070000810082608093810080918100816080936C
:100710008100809180008160809380008091B10091
:1007200084608093B1008091B00081608093B000BC
:1007300080917A00846080937A0080917A00826050
:1007400080937A0080917A00816080937A00809112
:100750007A00806880937A001092C100E091920143
:10076000F091930182E08083E0918E01F0918F01FE
:100770001082E0919001F09191018FEC80831092B2
:100780009A01E0919601F091970186E08083E091D3
:100790009401F0919501808180618083E0919401C2
:1007A000F0919501808188608083E0919401F091BF
:1007B0009501808180688083E0919401F09195019A
:1007C00080818F7D808386E00E94870087E00E9481
:1007D000870088E00E94870089E00E94870082E805
:1007E00091E00E94060118161906BCF582E891E016
:1007F0000E94E4008093780180E491E00E94FC0173
:10080000E0918201F09183010190F081E02D6091EF
:10081000780182E891E0099586E191E00E94FC016F
:1008200080917801823469F02CF4813491F480E075
:1008300090E00CC0833441F0843459F483E090E0BC
:1008400005C081E090E002C082E090E00E94860254
:1008500004C081E591E00E9476020E94A601BFCF0C
:10086000E2E8F1E01382128288EE93E0A0E0B0E0CB
:1008700084839583A683B78388E091E09183808306
:1008800085EC90E09587848784EC90E09787868755
:1008900080EC90E0918B808B81EC90E0938B828B4D
:1008A00082EC90E0958B848B86EC90E0978B868B26
:1008B000118E128E138E148E0895A1E21A2EAA1B89
:1008C000BB1BFD010DC0AA1FBB1FEE1FFF1FA21700
:1008D000B307E407F50720F0A21BB30BE40BF50BFD
:1008E000661F771F881F991F1A9469F76095709586
:1008F000809590959B01AC01BD01CF010895EE0F4D
:10090000FF1F0590F491E02D099481E090E0F894A8
:080910000C948A04F894FFCF57
:1009180006070809000000003D01A600D500840173
:100928000601E400F8000D0A006E6F6C75204C4556
:10093800442079616B696C646921006E6F6C752065
:100948004C454420736F6E647572756C6475210034
:1009580047656C656E206B6172616B7465723A20D5
:1009680000476563657273697A20626972206B61FA
:1009780072616B74657220676F6E646572696C640E
:0409880069210000E1
:107E0000112484B714BE81FFF0D085E080938100F7
:107E100082E08093C00088E18093C10086E0809377
:107E2000C20080E18093C4008EE0C9D0259A86E02C
:107E300020E33CEF91E0309385002093840096BBD3
:107E4000B09BFECF1D9AA8958150A9F7CC24DD24C4
:107E500088248394B5E0AB2EA1E19A2EF3E0BF2EE7
:107E6000A2D0813461F49FD0082FAFD0023811F036
:107E7000013811F484E001C083E08DD089C08234E0
:107E800011F484E103C0853419F485E0A6D080C0E4
:107E9000853579F488D0E82EFF2485D0082F10E0AE
:107EA000102F00270E291F29000F111F8ED06801E7
:107EB0006FC0863521F484E090D080E0DECF843638
:107EC00009F040C070D06FD0082F6DD080E0C81688
:107ED00080E7D80618F4F601B7BEE895C0E0D1E017
:107EE00062D089930C17E1F7F0E0CF16F0E7DF06D8
:107EF00018F0F601B7BEE89568D007B600FCFDCFD4
:107F0000A601A0E0B1E02C9130E011968C91119780
:107F100090E0982F8827822B932B1296FA010C0160
:107F200087BEE89511244E5F5F4FF1E0A038BF0790
:107F300051F7F601A7BEE89507B600FCFDCF97BE46
:107F4000E89526C08437B1F42ED02DD0F82E2BD052
:107F50003CD0F601EF2C8F010F5F1F4F84911BD097
:107F6000EA94F801C1F70894C11CD11CFA94CF0C13
:107F7000D11C0EC0853739F428D08EE10CD085E9AC
:107F80000AD08FE07ACF813511F488E018D01DD067
:107F900080E101D065CF982F8091C00085FFFCCF94
:107FA0009093C60008958091C00087FFFCCF809118
:107FB000C00084FD01C0A8958091C6000895E0E648
:107FC000F0E098E1908380830895EDDF803219F02E
:107FD00088E0F5DFFFCF84E1DECF1F93182FE3DFCA
:107FE0001150E9F7F2DF1F91089580E0E8DFEE27F6
:047FF000FF270994CA
:027FFE00040479
:0400000300007E007B
:00000001FF
