:100000000C9435000C945D000C945D000C945D0024
:100010000C945D000C945D000C945D000C945D00EC
:100020000C945D000C945D000C945D000C945D00DC
:100030000C945D000C945D000C945D000C945D00CC
:100040000C9432020C945D000C9400020C94DA01C2
:100050000C945D000C945D000C945D000C945D00AC
:100060000C945D000C945D00170311241FBECFEFAC
:10007000D8E0DEBFCDBF11E0A0E0B1E0E2EAF6E0FB
:1000800002C005900D92A035B107D9F721E0A0E597
:10009000B1E001C01D92A63FB207E1F710E0C5E351
:1000A000D0E004C02197FE010E944403C433D1076D
:1000B000C9F70E947C020C944F030C940000CF926D
:1000C000DF92EF92FF920F931F93CF93DF936C0118
:1000D0007A018B01C0E0D0E0CE15DF0589F0D801B0
:1000E0006D918D01D601ED91FC910190F081E02D93
:1000F000C6010995892B11F47E0102C02196ECCF2F
:10010000C701DF91CF911F910F91FF90EF90DF908A
:10011000CF900895089580E090E00895FC01538DFC
:10012000448D252F30E0842F90E0821B930B5417D1
:1001300010F0CF96089501970895FC01918D828D5E
:10014000981761F0828DDF01A80FB11D5D968C912B
:10015000928D9F5F9F73928F90E008958FEF9FEF36
:100160000895FC01918D828D981731F0828DE80FF2
:10017000F11D858D90E008958FEF9FEF0895FC01AC
:10018000918D228D892F90E0805C9F4F821B910979
:100190008F739927089589E591E00E94BF0021E0BF
:1001A000892B09F420E0822F0895FC01848DDF0162
:1001B000A80FB11DA35ABF4F2C91848D90E00196DA
:1001C0008F739927848FA689B7892C93A089B189C9
:1001D0008C9180648C93938D848D981306C00288D3
:1001E000F389E02D80818F7D80830895EF92FF92C7
:1001F0000F931F93CF93DF93EC0181E0888F9B8D4A
:100200008C8D981305C0E889F989808185FD24C00B
:10021000F62E0B8D10E00F5F1F4F0F731127E02E8E
:100220008C8DE8120CC00FB607FCFACFE889F9896B
:10023000808185FFF5CFCE010E94D500F1CF8B8D57
:10024000FE01E80FF11DE35AFF4FF0820B8FEA89A0
:10025000FB898081806207C0EE89FF896083E8891D
:10026000F98980818064808381E090E0DF91CF9183
:100270001F910F91FF90EF900895CF93DF93EC01C2
:10028000888D8823C9F0EA89FB89808185FD05C0B6
:10029000A889B9898C9186FD0FC00FB607FCF5CFF0
:1002A000808185FFF2CFA889B9898C9185FFEDCF38
:1002B000CE010E94D500E7CFDF91CF91089580E075
:1002C00090E0892B29F00E94CB0081110C94000052
:1002D00008953FB7F8948091550190915601A091EF
:1002E0005701B091580126B5A89B05C02F3F19F0C2
:1002F0000196A11DB11D3FBFBA2FA92F982F8827A6
:10030000820F911DA11DB11DBC01CD0142E0660F00
:10031000771F881F991F4A95D1F708958F929F9252
:10032000AF92BF92CF92DF92EF92FF920E9469014B
:100330004B015C0188EEC82E83E0D82EE12CF12C15
:100340000E946901DC01CB0188199909AA09BB093E
:10035000883E9340A105B10558F021E0C21AD108AA
:10036000E108F10888EE880E83E0981EA11CB11CFC
:10037000C114D104E104F10419F7FF90EF90DF906C
:10038000CF90BF90AF909F908F900895009769F0A5
:10039000FC0101900020E9F73197AF01481B590B90
:1003A000BC0189E591E00C945F0080E090E0089545
:1003B0000E944A031F920F920FB60F9211242F939F
:1003C0003F934F935F936F937F938F939F93AF93DD
:1003D000BF93EF93FF9389E591E00E94D500FF91D1
:1003E000EF91BF91AF919F918F917F916F915F91AD
:1003F0004F913F912F910F900FBE0F901F90189526
:100400001F920F920FB60F9211242F938F939F93E9
:10041000EF93FF93E0916901F0916A018081E0918F
:100420006F01F091700182FD12C090818091720184
:100430008F5F8F7320917301821751F0E0917201E9
:10044000F0E0E75AFE4F958F8093720101C08081E2
:10045000FF91EF919F918F912F910F900FBE0F9071
:100460001F9018951F920F920FB60F9211242F9381
:100470003F938F939F93AF93BF938091510190913E
:100480005201A0915301B09154013091500123E0E9
:10049000230F2D3720F40196A11DB11D05C026E8BC
:1004A000230F0296A11DB11D20935001809351018D
:1004B00090935201A0935301B09354018091550140
:1004C00090915601A0915701B09158010196A11D3C
:1004D000B11D8093550190935601A0935701B0939D
:1004E0005801BF91AF919F918F913F912F910F90A4
:1004F0000FBE0F901F901895789484B5826084BDCC
:1005000084B5816084BD85B5826085BD85B5816017
:1005100085BD80916E00816080936E001092810095
:100520008091810082608093810080918100816050
:100530008093810080918000816080938000809111
:10054000B10084608093B1008091B000816080939D
:10055000B00080917A00846080937A0080917A0064
:10056000826080937A0080917A00816080937A0023
:1005700080917A00806880937A001092C100E091A7
:100580006901F0916A0182E08083E0916501F09158
:1005900066011082E0916701F09168018FEC808321
:1005A00010927101E0916D01F0916E0186E08083FF
:1005B000E0916B01F0916C01808180618083E0911A
:1005C0006B01F0916C01808188608083E0916B0108
:1005D000F0916C01808180688083E0916B01F091E3
:1005E0006C0180818F7D808382E191E00E94C60151
:1005F00084E291E00E94C6010E948E0187E291E0B0
:100600000E94C6010E948E018CE391E00E94C60107
:100610000E948E0188E491E00E94C60184E291E08C
:100620000E94C6010E948E010E945F01DDCFE9E5B4
:10063000F1E01382128288EE93E0A0E0B0E08483C0
:100640009583A683B78384E091E09183808385ECD2
:1006500090E09587848784EC90E09787868780EC8C
:1006600090E0918B808B81EC90E0938B828B82EC7D
:1006700090E0958B848B86EC90E0978B868B118E27
:10068000128E138E148E0895EE0FFF1F0590F491B5
:10069000E02D099481E090E0F8940C944F03F894D5
:0206A000FFCF8A
:1006A20000000000F6005F008E003D01BF009D00CB
:1006B200B10067617A6920756E69766572736974D3
:1006C200657369000D0A0074656B6E696B2062695F
:1006D2006C696D6C6572206D796F0A006D656B6176
:1006E20074726F6E696B0900626F6C756D750A00CA
:00000001FF
